P  CODE 00
P  UNITS CUST 0
P  arrayDim   N
317GND              VIA        MD0118PA00X+004300Y+000300X0197Y0000R000S1004824387
317GND              VIA        MD0118PA00X-005260Y+001770X0197Y0000R000S1004824387
317GND              VIA        MD0118PA00X-003750Y+006750X0197Y0000R000S1004824387
317GND              VIA        MD0118PA00X+010750Y+006050X0197Y0000R000S1004824387
317GND              VIA        MD0118PA00X-006260Y-005250X0197Y0000R000S1004824387
317GND              VIA        MD0118PA00X+003697Y-001000X0197Y0000R000S1004824387
317GND              VIA        MD0118PA00X-000750Y+001400X0197Y0000R000S1004824387
317GND              VIA        MD0118PA00X-003653Y-004603X0197Y0000R000S1004824387
317GND              VIA        MD0118PA00X-003000Y+006750X0197Y0000R000S1004824387
317GND              VIA        MD0118PA00X-006784Y-003031X0197Y0000R000S1004824387
317GND              VIA        MD0118PA00X+014771Y+003439X0197Y0000R000S1004824387
317GND              VIA        MD0118PA00X-000400Y+003200X0197Y0000R000S1004824387
317GND              VIA        MD0118PA00X+005880Y+000380X0197Y0000R000S1004824387
317GND              VIA        MD0118PA00X+000000Y+005600X0197Y0000R000S1004824387
317GND              VIA        MD0118PA00X-006570Y+001930X0197Y0000R000S1004824387
317GND              VIA        MD0118PA00X-014150Y+002100X0197Y0000R000S1004824387
317GND              VIA        MD0118PA00X-005500Y+003350X0197Y0000R000S1004824387
317GND              VIA        MD0118PA00X-005250Y+002420X0197Y0000R000S1004824387
317GND              VIA        MD0118PA00X+010980Y-003070X0197Y0000R000S1004824387
317GND              VIA        MD0118PA00X+000850Y+005600X0197Y0000R000S1004824387
317GND              VIA        MD0118PA00X+009180Y-005230X0197Y0000R000S1004824387
317GND              VIA        MD0118PA00X-000850Y+006200X0197Y0000R000S1004824387
317GND              VIA        MD0118PA00X-006537Y+003600X0197Y0000R000S1004824387
317GND              VIA        MD0118PA00X-010920Y+003220X0197Y0000R000S1004824387
317GND              VIA        MD0118PA00X-000400Y+006200X0197Y0000R000S1004824387
317GND              VIA        MD0118PA00X-011300Y+003600X0197Y0000R000S1004824387
317GND              VIA        MD0118PA00X+002600Y+001250X0197Y0000R000S1004824387
317GND              VIA        MD0118PA00X+002148Y-002384X0197Y0000R000S1004824387
317GND              VIA        MD0118PA00X-005820Y+000360X0197Y0000R000S1004824387
317GND              VIA        MD0118PA00X+000850Y+004400X0197Y0000R000S1004824387
317GND              VIA        MD0118PA00X-006250Y-001844X0197Y0000R000S1004824387
317GND              VIA        MD0118PA00X+010230Y-004610X0197Y0000R000S1004824387
317GND              VIA        MD0118PA00X-006900Y+000100X0197Y0000R000S1004824387
317GND              VIA        MD0118PA00X+000407Y-004830X0197Y0000R000S1004824387
317GND              VIA        MD0118PA00X-006440Y+003100X0197Y0000R000S1004824387
317GND              VIA        MD0118PA00X-007600Y-002550X0197Y0000R000S1004824387
317GND              VIA        MD0118PA00X-003323Y-001770X0197Y0000R000S1004824387
317GND              VIA        MD0118PA00X-005610Y-002610X0197Y0000R000S1004824387
317GND              VIA        MD0118PA00X-014550Y+002100X0197Y0000R000S1004824387
317GND              VIA        MD0118PA00X+006500Y+000050X0197Y0000R000S1004824387
317GND              VIA        MD0118PA00X-007818Y-000437X0197Y0000R000S1004824387
317GND              VIA        MD0118PA00X+005580Y+002370X0197Y0000R000S1004824387
317GND              VIA        MD0118PA00X+004300Y-005760X0197Y0000R000S1004824387
317GND              VIA        MD0118PA00X+001250Y+006200X0197Y0000R000S1004824387
317GND              VIA        MD0118PA00X+002680Y-006350X0197Y0000R000S1004824387
317GND              VIA        MD0118PA00X+000400Y+001450X0197Y0000R000S1004824387
317GND              VIA        MD0118PA00X-001019Y-002319X0197Y0000R000S1004824387
317GND              VIA        MD0118PA00X-003850Y+000500X0197Y0000R000S1004824387
317GND              VIA        MD0118PA00X-003500Y+001480X0197Y0000R000S1004824387
317GND              VIA        MD0118PA00X+005840Y+001300X0197Y0000R000S1004824387
317GND              VIA        MD0118PA00X+003000Y+006750X0197Y0000R000S1004824387
317GND              VIA        MD0118PA00X+005150Y-001550X0197Y0000R000S1004824387
317GND              VIA        MD0118PA00X+008460Y-005310X0197Y0000R000S1004824387
317GND              VIA        MD0118PA00X+013571Y+003739X0197Y0000R000S1004824387
317GND              VIA        MD0118PA00X-008030Y-002280X0197Y0000R000S1004824387
317GND              VIA        MD0118PA00X+002650Y+000850X0197Y0000R000S1004824387
317GND              VIA        MD0118PA00X+010500Y+006680X0197Y0000R000S1004824387
317GND              VIA        MD0118PA00X+004167Y-000485X0197Y0000R000S1004824387
317GND              VIA        MD0118PA00X-010900Y+006350X0197Y0000R000S1004824387
317GND              VIA        MD0118PA00X+001300Y+001600X0197Y0000R000S1004824387
317GND              VIA        MD0118PA00X-001557Y-006352X0197Y0000R000S1004824387
317GND              VIA        MD0118PA00X-002500Y-006840X0197Y0000R000S1004824387
317GND              VIA        MD0118PA00X-006580Y+001040X0197Y0000R000S1004824387
317GND              VIA        MD0118PA00X+003850Y+000700X0197Y0000R000S1004824387
317GND              VIA        MD0118PA00X-013350Y+001500X0197Y0000R000S1004824387
317GND              VIA        MD0118PA00X+011843Y-001467X0197Y0000R000S1004824387
317GND              VIA        MD0118PA00X-002280Y+000973X0197Y0000R000S1004824387
317GND              VIA        MD0118PA00X-010900Y+002050X0197Y0000R000S1004824387
317GND              VIA        MD0118PA00X+000400Y+003200X0197Y0000R000S1004824387
317GND              VIA        MD0118PA00X-000914Y-001684X0197Y0000R000S1004824387
317GND              VIA        MD0118PA00X-004900Y+000515X0197Y0000R000S1004824387
317GND              VIA        MD0118PA00X+002097Y-000280X0197Y0000R000S1004824387
317GND              VIA        MD0118PA00X+006010Y+003560X0197Y0000R000S1004824387
317GND              VIA        MD0118PA00X+011843Y-000908X0197Y0000R000S1004824387
317GND              VIA        MD0118PA00X-003634Y+000855X0197Y0000R000S1004824387
317GND              VIA        MD0118PA00X-001250Y+002000X0197Y0000R000S1004824387
317GND              VIA        MD0118PA00X+000850Y+002600X0197Y0000R000S1004824387
317GND              VIA        MD0118PA00X-007250Y-002900X0197Y0000R000S1004824387
317GND              VIA        MD0118PA00X+009405Y-004145X0197Y0000R000S1004824387
317GND              VIA        MD0118PA00X+007360Y-003300X0197Y0000R000S1004824387
317GND              VIA        MD0118PA00X+012250Y-004850X0197Y0000R000S1004824387
317GND              VIA        MD0118PA00X+005250Y+006750X0197Y0000R000S1004824387
317GND              VIA        MD0118PA00X-000916Y-000869X0197Y0000R000S1004824387
317GND              VIA        MD0118PA00X-007950Y-003600X0197Y0000R000S1004824387
317GND              VIA        MD0118PA00X-006400Y-000650X0197Y0000R000S1004824387
317GND              VIA        MD0118PA00X+010868Y-004390X0197Y0000R000S1004824387
317GND              VIA        MD0118PA00X+002150Y+000350X0197Y0000R000S1004824387
317GND              VIA        MD0118PA00X+010262Y-000228X0197Y0000R000S1004824387
317GND              VIA        MD0118PA00X+008408Y-002560X0197Y0000R000S1004824387
317GND              VIA        MD0118PA00X+013571Y+003439X0197Y0000R000S1004824387
317GND              VIA        MD0118PA00X-000717Y-001067X0197Y0000R000S1004824387
317GND              VIA        MD0118PA00X-014150Y+000900X0197Y0000R000S1004824387
317GND              VIA        MD0118PA00X-001450Y-000650X0197Y0000R000S1004824387
317GND              VIA        MD0118PA00X-003721Y-003035X0197Y0000R000S1004824387
317GND              VIA        MD0118PA00X-001250Y+005000X0197Y0000R000S1004824387
317GND              VIA        MD0118PA00X-007950Y-003300X0197Y0000R000S1004824387
317GND              VIA        MD0118PA00X-000850Y+005000X0197Y0000R000S1004824387
317GND              VIA        MD0118PA00X-001050Y+001700X0197Y0000R000S1004824387
317GND              VIA        MD0118PA00X-001250Y+002600X0197Y0000R000S1004824387
317GND              VIA        MD0118PA00X-014550Y+000900X0197Y0000R000S1004824387
317GND              VIA        MD0118PA00X+003900Y-002450X0197Y0000R000S1004824387
317GND              VIA        MD0118PA00X-005792Y+003332X0197Y0000R000S1004824387
317GND              VIA        MD0118PA00X-001250Y+003800X0197Y0000R000S1004824387
317GND              VIA        MD0118PA00X-010900Y+004950X0197Y0000R000S1004824387
317GND              VIA        MD0118PA00X-000478Y-004368X0197Y0000R000S1004824387
317GND              VIA        MD0118PA00X+011741Y-001784X0197Y0000R000S1004824387
317GND              VIA        MD0118PA00X-005540Y-004760X0197Y0000R000S1004824387
317GND              VIA        MD0118PA00X-004500Y+006750X0197Y0000R000S1004824387
317GND              VIA        MD0118PA00X+001200Y-005195X0197Y0000R000S1004824387
317GND              VIA        MD0118PA00X+007200Y-006232X0197Y0000R000S1004824387
317GND              VIA        MD0118PA00X+010210Y+006560X0197Y0000R000S1004824387
317GND              VIA        MD0118PA00X-006726Y-001948X0197Y0000R000S1004824387
317GND              VIA        MD0118PA00X-005650Y+001703X0197Y0000R000S1004824387
317GND              VIA        MD0118PA00X+004250Y+000800X0197Y0000R000S1004824387
317GND              VIA        MD0118PA00X+012200Y-006280X0197Y0000R000S1004824387
317GND              VIA        MD0118PA00X+005740Y+000970X0197Y0000R000S1004824387
317GND              VIA        MD0118PA00X+006120Y+001920X0197Y0000R000S1004824387
317GND              VIA        MD0118PA00X-005998Y+001300X0197Y0000R000S1004824387
317GND              VIA        MD0118PA00X+004180Y-002420X0197Y0000R000S1004824387
317GND              VIA        MD0118PA00X-000400Y+000200X0197Y0000R000S1004824387
317GND              VIA        MD0118PA00X-000400Y+003800X0197Y0000R000S1004824387
317GND              VIA        MD0118PA00X+001250Y+003200X0197Y0000R000S1004824387
317GND              VIA        MD0118PA00X+003400Y-000100X0197Y0000R000S1004824387
317GND              VIA        MD0118PA00X+001516Y-006837X0197Y0000R000S1004824387
317GND              VIA        MD0118PA00X+000000Y+003200X0197Y0000R000S1004824387
317GND              VIA        MD0118PA00X+012470Y-006710X0197Y0000R000S1004824387
317GND              VIA        MD0118PA00X+001250Y+000650X0197Y0000R000S1004824387
317GND              VIA        MD0118PA00X+010270Y-003700X0197Y0000R000S1004824387
317GND              VIA        MD0118PA00X-013750Y+002100X0197Y0000R000S1004824387
317GND              VIA        MD0118PA00X-007500Y-003950X0197Y0000R000S1004824387
317GND              VIA        MD0118PA00X+008971Y-003020X0197Y0000R000S1004824387
317GND              VIA        MD0118PA00X-005000Y-004750X0197Y0000R000S1004824387
317GND              VIA        MD0118PA00X-005648Y+001300X0197Y0000R000S1004824387
317GND              VIA        MD0118PA00X-002565Y+000436X0197Y0000R000S1004824387
317GND              VIA        MD0118PA00X+007500Y+006750X0197Y0000R000S1004824387
317GND              VIA        MD0118PA00X+003500Y-001500X0197Y0000R000S1004824387
317GND              VIA        MD0118PA00X+002880Y-003200X0197Y0000R000S1004824387
317GND              VIA        MD0118PA00X+005100Y+000500X0197Y0000R000S1004824387
317GND              VIA        MD0118PA00X+000850Y+003800X0197Y0000R000S1004824387
317GND              VIA        MD0118PA00X-014550Y+000300X0197Y0000R000S1004824387
317GND              VIA        MD0118PA00X+009220Y-005770X0197Y0000R000S1004824387
317GND              VIA        MD0118PA00X+005600Y+002100X0197Y0000R000S1004824387
317GND              VIA        MD0118PA00X+011844Y-001200X0197Y0000R000S1004824387
317GND              VIA        MD0118PA00X-012950Y+002100X0197Y0000R000S1004824387
317GND              VIA        MD0118PA00X+003150Y-000500X0197Y0000R000S1004824387
317GND              VIA        MD0118PA00X-005250Y+006750X0197Y0000R000S1004824387
317GND              VIA        MD0118PA00X+005219Y-004450X0197Y0000R000S1004824387
317GND              VIA        MD0118PA00X+010240Y-004290X0197Y0000R000S1004824387
317GND              VIA        MD0118PA00X+006000Y+006750X0197Y0000R000S1004824387
317GND              VIA        MD0118PA00X-005240Y+003350X0197Y0000R000S1004824387
317GND              VIA        MD0118PA00X-002043Y-000591X0197Y0000R000S1004824387
317GND              VIA        MD0118PA00X-010940Y+001040X0197Y0000R000S1004824387
317GND              VIA        MD0118PA00X-000850Y+002000X0197Y0000R000S1004824387
317GND              VIA        MD0118PA00X+008540Y-006660X0197Y0000R000S1004824387
317GND              VIA        MD0118PA00X-006100Y+003380X0197Y0000R000S1004824387
317GND              VIA        MD0118PA00X-003300Y-000400X0197Y0000R000S1004824387
317GND              VIA        MD0118PA00X-014150Y-002100X0197Y0000R000S1004824387
317GND              VIA        MD0118PA00X-011800Y+002550X0197Y0000R000S1004824387
317GND              VIA        MD0118PA00X+001250Y+005000X0197Y0000R000S1004824387
317GND              VIA        MD0118PA00X+011134Y-004809X0197Y0000R000S1004824387
317GND              VIA        MD0118PA00X+006120Y+001020X0197Y0000R000S1004824387
317GND              VIA        MD0118PA00X+005219Y-004040X0197Y0000R000S1004824387
317GND              VIA        MD0118PA00X+004350Y+001100X0197Y0000R000S1004824387
317GND              VIA        MD0118PA00X+001969Y-001987X0197Y0000R000S1004824387
317GND              VIA        MD0118PA00X-001413Y-003178X0197Y0000R000S1004824387
317GND              VIA        MD0118PA00X+008100Y-003838X0197Y0000R000S1004824387
317GND              VIA        MD0118PA00X+008923Y-002222X0197Y0000R000S1004824387
317GND              VIA        MD0118PA00X+002840Y-002420X0197Y0000R000S1004824387
317GND              VIA        MD0118PA00X+010120Y+006040X0197Y0000R000S1004824387
317GND              VIA        MD0118PA00X-005740Y+003100X0197Y0000R000S1004824387
317GND              VIA        MD0118PA00X+011700Y-002373X0197Y0000R000S1004824387
317GND              VIA        MD0118PA00X+006800Y-004484X0197Y0000R000S1004824387
317GND              VIA        MD0118PA00X-003920Y-006820X0197Y0000R000S1004824387
317GND              VIA        MD0118PA00X-005150Y-006450X0197Y0000R000S1004824387
317GND              VIA        MD0118PA00X-010510Y+001620X0197Y0000R000S1004824387
317GND              VIA        MD0118PA00X-002541Y-002141X0197Y0000R000S1004824387
317GND              VIA        MD0118PA00X-010900Y+005700X0197Y0000R000S1004824387
317GND              VIA        MD0118PA00X+000400Y+004400X0197Y0000R000S1004824387
317GND              VIA        MD0118PA00X-007850Y-002150X0197Y0000R000S1004824387
317GND              VIA        MD0118PA00X+000000Y+002000X0197Y0000R000S1004824387
317GND              VIA        MD0118PA00X+000000Y+004400X0197Y0000R000S1004824387
317GND              VIA        MD0118PA00X+000400Y+005600X0197Y0000R000S1004824387
317GND              VIA        MD0118PA00X+012180Y-005650X0197Y0000R000S1004824387
317GND              VIA        MD0118PA00X+002800Y-000350X0197Y0000R000S1004824387
317GND              VIA        MD0118PA00X-000149Y-003946X0197Y0000R000S1004824387
317GND              VIA        MD0118PA00X-005646Y+000905X0197Y0000R000S1004824387
317GND              VIA        MD0118PA00X-011300Y+005700X0197Y0000R000S1004824387
317GND              VIA        MD0118PA00X+000864Y-003874X0197Y0000R000S1004824387
317GND              VIA        MD0118PA00X+003900Y+000200X0197Y0000R000S1004824387
317GND              VIA        MD0118PA00X+001250Y+002600X0197Y0000R000S1004824387
317GND              VIA        MD0118PA00X+012980Y-006510X0197Y0000R000S1004824387
317GND              VIA        MD0118PA00X+010868Y-004890X0197Y0000R000S1004824387
317GND              VIA        MD0118PA00X+012910Y-005800X0197Y0000R000S1004824387
317GND              VIA        MD0118PA00X-005252Y+000900X0197Y0000R000S1004824387
317GND              VIA        MD0118PA00X+000576Y-001757X0197Y0000R000S1004824387
317GND              VIA        MD0118PA00X-003688Y-002223X0197Y0000R000S1004824387
317GND              VIA        MD0118PA00X-006400Y+001703X0197Y0000R000S1004824387
317GND              VIA        MD0118PA00X-001780Y-002280X0197Y0000R000S1004824387
317GND              VIA        MD0118PA00X+006000Y+002600X0197Y0000R000S1004824387
317GND              VIA        MD0118PA00X+006230Y-002110X0197Y0000R000S1004824387
317GND              VIA        MD0118PA00X-008080Y-005760X0197Y0000R000S1004824387
317GND              VIA        MD0118PA00X+000000Y+006200X0197Y0000R000S1004824387
317GND              VIA        MD0118PA00X+000850Y+002000X0197Y0000R000S1004824387
317GND              VIA        MD0118PA00X+008250Y+006750X0197Y0000R000S1004824387
317GND              VIA        MD0118PA00X-010900Y+004350X0197Y0000R000S1004824387
317GND              VIA        MD0118PA00X+002850Y-001000X0197Y0000R000S1004824387
317GND              VIA        MD0118PA00X-002068Y+000190X0197Y0000R000S1004824387
317GND              VIA        MD0118PA00X+008630Y-003880X0197Y0000R000S1004824387
317GND              VIA        MD0118PA00X-001250Y+004400X0197Y0000R000S1004824387
317GND              VIA        MD0118PA00X-004950Y+001200X0197Y0000R000S1004824387
317GND              VIA        MD0118PA00X-010500Y+002520X0197Y0000R000S1004824387
317GND              VIA        MD0118PA00X-006450Y-000100X0197Y0000R000S1004824387
317GND              VIA        MD0118PA00X-001800Y+000450X0197Y0000R000S1004824387
317GND              VIA        MD0118PA00X-000750Y+006750X0197Y0000R000S1004824387
317GND              VIA        MD0118PA00X-008250Y+006750X0197Y0000R000S1004824387
317GND              VIA        MD0118PA00X-011300Y+006350X0197Y0000R000S1004824387
317GND              VIA        MD0118PA00X+005200Y-006400X0197Y0000R000S1004824387
317GND              VIA        MD0118PA00X-007100Y-003650X0197Y0000R000S1004824387
317GND              VIA        MD0118PA00X-007670Y-004890X0197Y0000R000S1004824387
317GND              VIA        MD0118PA00X+002279Y-004179X0197Y0000R000S1004824387
317GND              VIA        MD0118PA00X+000850Y+005000X0197Y0000R000S1004824387
317GND              VIA        MD0118PA00X+001090Y-004527X0197Y0000R000S1004824387
317GND              VIA        MD0118PA00X-001840Y+000938X0197Y0000R000S1004824387
317GND              VIA        MD0118PA00X+000584Y-005186X0197Y0000R000S1004824387
317GND              VIA        MD0118PA00X-002583Y-000050X0197Y0000R000S1004824387
317GND              VIA        MD0118PA00X-006258Y-002858X0197Y0000R000S1004824387
317GND              VIA        MD0118PA00X+006560Y-003838X0197Y0000R000S1004824387
317GND              VIA        MD0118PA00X-000400Y+001450X0197Y0000R000S1004824387
317GND              VIA        MD0118PA00X-001340Y+001610X0197Y0000R000S1004824387
317GND              VIA        MD0118PA00X-014150Y-001500X0197Y0000R000S1004824387
317GND              VIA        MD0118PA00X+001400Y+001150X0197Y0000R000S1004824387
317GND              VIA        MD0118PA00X+000550Y-000750X0197Y0000R000S1004824387
317GND              VIA        MD0118PA00X-010900Y+002850X0197Y0000R000S1004824387
317GND              VIA        MD0118PA00X+005360Y+000630X0197Y0000R000S1004824387
317GND              VIA        MD0118PA00X-000400Y+002000X0197Y0000R000S1004824387
317GND              VIA        MD0118PA00X+006803Y-001317X0197Y0000R000S1004824387
317GND              VIA        MD0118PA00X-007500Y-004350X0197Y0000R000S1004824387
317GND              VIA        MD0118PA00X+005200Y+000150X0197Y0000R000S1004824387
317GND              VIA        MD0118PA00X+005940Y+000690X0197Y0000R000S1004824387
317GND              VIA        MD0118PA00X-005246Y+000515X0197Y0000R000S1004824387
317GND              VIA        MD0118PA00X-005650Y-000100X0197Y0000R000S1004824387
317GND              VIA        MD0118PA00X+012220Y-000540X0197Y0000R000S1004824387
317GND              VIA        MD0118PA00X-005617Y+000515X0197Y0000R000S1004824387
317GND              VIA        MD0118PA00X-008080Y-005420X0197Y0000R000S1004824387
317GND              VIA        MD0118PA00X-003600Y-003450X0197Y0000R000S1004824387
317GND              VIA        MD0118PA00X-004750Y+000900X0197Y0000R000S1004824387
317GND              VIA        MD0118PA00X+008051Y-000469X0197Y0000R000S1004824387
317GND              VIA        MD0118PA00X+008480Y-004920X0197Y0000R000S1004824387
317GND              VIA        MD0118PA00X+001500Y+006750X0197Y0000R000S1004824387
317GND              VIA        MD0118PA00X-006750Y+006750X0197Y0000R000S1004824387
317GND              VIA        MD0118PA00X-001497Y-001024X0197Y0000R000S1004824387
317GND              VIA        MD0118PA00X-005779Y-002921X0197Y0000R000S1004824387
317GND              VIA        MD0118PA00X-002068Y+000643X0197Y0000R000S1004824387
317GND              VIA        MD0118PA00X+002410Y-004570X0197Y0000R000S1004824387
317GND              VIA        MD0118PA00X-004445Y+000508X0197Y0000R000S1004824387
317GND              VIA        MD0118PA00X+013050Y-004400X0197Y0000R000S1004824387
317GND              VIA        MD0118PA00X+007636Y-000012X0197Y0000R000S1004824387
317GND              VIA        MD0118PA00X+005750Y-003750X0197Y0000R000S1004824387
317GND              VIA        MD0118PA00X+000400Y+003800X0197Y0000R000S1004824387
317GND              VIA        MD0118PA00X+005293Y-001000X0197Y0000R000S1004824387
317GND              VIA        MD0118PA00X+002850Y-001500X0197Y0000R000S1004824387
317GND              VIA        MD0118PA00X+009450Y-005170X0197Y0000R000S1004824387
317GND              VIA        MD0118PA00X+009570Y-003723X0197Y0000R000S1004824387
317GND              VIA        MD0118PA00X+010160Y-006520X0197Y0000R000S1004824387
317GND              VIA        MD0118PA00X-000850Y+003800X0197Y0000R000S1004824387
317GND              VIA        MD0118PA00X-000750Y+000800X0197Y0000R000S1004824387
317GND              VIA        MD0118PA00X+010868Y-003701X0197Y0000R000S1004824387
317GND              VIA        MD0118PA00X+000503Y-006350X0197Y0000R000S1004824387
317GND              VIA        MD0118PA00X-007732Y-005368X0197Y0000R000S1004824387
317GND              VIA        MD0118PA00X+006000Y+003100X0197Y0000R000S1004824387
317GND              VIA        MD0118PA00X-000850Y+002600X0197Y0000R000S1004824387
317GND              VIA        MD0118PA00X-000748Y-006838X0197Y0000R000S1004824387
317GND              VIA        MD0118PA00X-014550Y-002100X0197Y0000R000S1004824387
317GND              VIA        MD0118PA00X+009960Y-003470X0197Y0000R000S1004824387
317GND              VIA        MD0118PA00X+000400Y-000350X0197Y0000R000S1004824387
317GND              VIA        MD0118PA00X-006100Y+000500X0197Y0000R000S1004824387
317GND              VIA        MD0118PA00X+006440Y+001920X0197Y0000R000S1004824387
317GND              VIA        MD0118PA00X-014550Y-000300X0197Y0000R000S1004824387
317GND              VIA        MD0118PA00X-014150Y+000300X0197Y0000R000S1004824387
317GND              VIA        MD0118PA00X+008420Y-005770X0197Y0000R000S1004824387
317GND              VIA        MD0118PA00X+012330Y+002830X0197Y0000R000S1004824387
317GND              VIA        MD0118PA00X+012080Y-006730X0197Y0000R000S1004824387
317GND              VIA        MD0118PA00X-001800Y-000800X0197Y0000R000S1004824387
317GND              VIA        MD0118PA00X+006107Y-003757X0197Y0000R000S1004824387
317GND              VIA        MD0118PA00X+014771Y+003739X0197Y0000R000S1004824387
317GND              VIA        MD0118PA00X+009263Y-000457X0197Y0000R000S1004824387
317GND              VIA        MD0118PA00X-008450Y-005250X0197Y0000R000S1004824387
317GND              VIA        MD0118PA00X+003450Y+001150X0197Y0000R000S1004824387
317GND              VIA        MD0118PA00X-002249Y-002288X0197Y0000R000S1004824387
317GND              VIA        MD0118PA00X+002850Y-003960X0197Y0000R000S1004824387
317GND              VIA        MD0118PA00X+001250Y+000000X0197Y0000R000S1004824387
317GND              VIA        MD0118PA00X+000950Y-000900X0197Y0000R000S1004824387
317GND              VIA        MD0118PA00X+003540Y-002420X0197Y0000R000S1004824387
317GND              VIA        MD0118PA00X+009170Y-006650X0197Y0000R000S1004824387
317GND              VIA        MD0118PA00X+000000Y-000350X0197Y0000R000S1004824387
317GND              VIA        MD0118PA00X+003050Y+001200X0197Y0000R000S1004824387
317GND              VIA        MD0118PA00X+009400Y-003420X0197Y0000R000S1004824387
317GND              VIA        MD0118PA00X-004000Y-005000X0197Y0000R000S1004824387
317GND              VIA        MD0118PA00X-001250Y+005600X0197Y0000R000S1004824387
317GND              VIA        MD0118PA00X+000750Y+006750X0197Y0000R000S1004824387
317GND              VIA        MD0118PA00X+005650Y+000700X0197Y0000R000S1004824387
317GND              VIA        MD0118PA00X+000000Y+005000X0197Y0000R000S1004824387
317GND              VIA        MD0118PA00X+007120Y-006800X0197Y0000R000S1004824387
317GND              VIA        MD0118PA00X+007750Y-002150X0197Y0000R000S1004824387
317GND              VIA        MD0118PA00X+006750Y+006750X0197Y0000R000S1004824387
317GND              VIA        MD0118PA00X+011350Y+006050X0197Y0000R000S1004824387
317GND              VIA        MD0118PA00X-009750Y+006750X0197Y0000R000S1004824387
317GND              VIA        MD0118PA00X+005920Y+002100X0197Y0000R000S1004824387
317GND              VIA        MD0118PA00X+005900Y+001600X0197Y0000R000S1004824387
317GND              VIA        MD0118PA00X-007977Y-001850X0197Y0000R000S1004824387
317GND              VIA        MD0118PA00X+008826Y-001386X0197Y0000R000S1004824387
317GND              VIA        MD0118PA00X-000650Y+000450X0197Y0000R000S1004824387
317GND              VIA        MD0118PA00X-000385Y+000765X0197Y0000R000S1004824387
317GND              VIA        MD0118PA00X-006000Y-000550X0197Y0000R000S1004824387
317GND              VIA        MD0118PA00X+005180Y-006140X0197Y0000R000S1004824387
317GND              VIA        MD0118PA00X+000766Y-006837X0197Y0000R000S1004824387
317GND              VIA        MD0118PA00X-001250Y+003200X0197Y0000R000S1004824387
317GND              VIA        MD0118PA00X+001750Y-002650X0197Y0000R000S1004824387
317GND              VIA        MD0118PA00X+010000Y-006260X0197Y0000R000S1004824387
317GND              VIA        MD0118PA00X-005852Y-002100X0197Y0000R000S1004824387
317GND              VIA        MD0118PA00X-003020Y-006680X0197Y0000R000S1004824387
317GND              VIA        MD0118PA00X+002100Y-001400X0197Y0000R000S1004824387
317GND              VIA        MD0118PA00X-007100Y-000500X0197Y0000R000S1004824387
317GND              VIA        MD0118PA00X+007139Y-000010X0197Y0000R000S1004824387
317GND              VIA        MD0118PA00X+011320Y-003080X0197Y0000R000S1004824387
317GND              VIA        MD0118PA00X+005160Y+001860X0197Y0000R000S1004824387
317GND              VIA        MD0118PA00X-010490Y+004330X0197Y0000R000S1004824387
317GND              VIA        MD0118PA00X+009600Y-001080X0197Y0000R000S1004824387
317GND              VIA        MD0118PA00X-007600Y-003550X0197Y0000R000S1004824387
317GND              VIA        MD0118PA00X-001000Y+000520X0197Y0000R000S1004824387
317GND              VIA        MD0118PA00X+005160Y+003310X0197Y0000R000S1004824387
317GND              VIA        MD0118PA00X+000000Y+001450X0197Y0000R000S1004824387
317GND              VIA        MD0118PA00X-005240Y+002850X0197Y0000R000S1004824387
317GND              VIA        MD0118PA00X+000918Y-000400X0197Y0000R000S1004824387
317GND              VIA        MD0118PA00X-006740Y+003800X0197Y0000R000S1004824387
317GND              VIA        MD0118PA00X+011950Y+005750X0197Y0000R000S1004824387
317GND              VIA        MD0118PA00X-001520Y-006838X0197Y0000R000S1004824387
317GND              VIA        MD0118PA00X+006605Y-000475X0197Y0000R000S1004824387
317GND              VIA        MD0118PA00X+009750Y+006750X0197Y0000R000S1004824387
317GND              VIA        MD0118PA00X+005500Y+001250X0197Y0000R000S1004824387
317GND              VIA        MD0118PA00X-000626Y-000126X0197Y0000R000S1004824387
317GND              VIA        MD0118PA00X+011840Y-004180X0197Y0000R000S1004824387
317GND              VIA        MD0118PA00X-005658Y+002601X0197Y0000R000S1004824387
317GND              VIA        MD0118PA00X-006200Y+002850X0197Y0000R000S1004824387
317GND              VIA        MD0118PA00X-005060Y-000100X0197Y0000R000S1004824387
317GND              VIA        MD0118PA00X-001650Y-000200X0197Y0000R000S1004824387
317GND              VIA        MD0118PA00X+010960Y-006740X0197Y0000R000S1004824387
317GND              VIA        MD0118PA00X-002425Y+001470X0197Y0000R000S1004824387
317GND              VIA        MD0118PA00X-003275Y-004225X0197Y0000R000S1004824387
317GND              VIA        MD0118PA00X+012710Y-006690X0197Y0000R000S1004824387
317GND              VIA        MD0118PA00X-000400Y+004400X0197Y0000R000S1004824387
317GND              VIA        MD0118PA00X-010490Y+003430X0197Y0000R000S1004824387
317GND              VIA        MD0118PA00X-006240Y+002020X0197Y0000R000S1004824387
317GND              VIA        MD0118PA00X-006100Y+002340X0197Y0000R000S1004824387
317GND              VIA        MD0118PA00X-005840Y+002020X0197Y0000R000S1004824387
317GND              VIA        MD0118PA00X-014550Y-001500X0197Y0000R000S1004824387
317GND              VIA        MD0118PA00X-013750Y+001500X0197Y0000R000S1004824387
317GND              VIA        MD0118PA00X-010500Y+006230X0197Y0000R000S1004824387
317GND              VIA        MD0118PA00X+011900Y-004850X0197Y0000R000S1004824387
317GND              VIA        MD0118PA00X-002950Y-000550X0197Y0000R000S1004824387
317GND              VIA        MD0118PA00X-004500Y+001150X0197Y0000R000S1004824387
317GND              VIA        MD0118PA00X-011300Y+004350X0197Y0000R000S1004824387
317GND              VIA        MD0118PA00X-000250Y-006350X0197Y0000R000S1004824387
317GND              VIA        MD0118PA00X-000400Y+002600X0197Y0000R000S1004824387
317GND              VIA        MD0118PA00X+005960Y+002360X0197Y0000R000S1004824387
317GND              VIA        MD0118PA00X-002583Y-000533X0197Y0000R000S1004824387
317GND              VIA        MD0118PA00X+005600Y+002600X0197Y0000R000S1004824387
317GND              VIA        MD0118PA00X+000400Y+005000X0197Y0000R000S1004824387
317GND              VIA        MD0118PA00X+000002Y-006838X0197Y0000R000S1004824387
317GND              VIA        MD0118PA00X+008417Y-003051X0197Y0000R000S1004824387
317GND              VIA        MD0118PA00X+000509Y-001300X0197Y0000R000S1004824387
317GND              VIA        MD0118PA00X+005840Y+003320X0197Y0000R000S1004824387
317GND              VIA        MD0118PA00X+008910Y-002557X0197Y0000R000S1004824387
317GND              VIA        MD0118PA00X-007520Y-002210X0197Y0000R000S1004824387
317GND              VIA        MD0118PA00X-006000Y+001700X0197Y0000R000S1004824387
317GND              VIA        MD0118PA00X+004700Y+000700X0197Y0000R000S1004824387
317GND              VIA        MD0118PA00X+005800Y+002850X0197Y0000R000S1004824387
317GND              VIA        MD0118PA00X-005805Y-000987X0197Y0000R000S1004824387
317GND              VIA        MD0118PA00X+004500Y+006750X0197Y0000R000S1004824387
317GND              VIA        MD0118PA00X+007300Y-004220X0197Y0000R000S1004824387
317GND              VIA        MD0118PA00X+005200Y+001000X0197Y0000R000S1004824387
317GND              VIA        MD0118PA00X+000000Y+006750X0197Y0000R000S1004824387
317GND              VIA        MD0118PA00X+000000Y+002600X0197Y0000R000S1004824387
317GND              VIA        MD0118PA00X+003500Y+001500X0197Y0000R000S1004824387
317GND              VIA        MD0118PA00X+002600Y-002700X0197Y0000R000S1004824387
317GND              VIA        MD0118PA00X+011820Y-005150X0197Y0000R000S1004824387
317GND              VIA        MD0118PA00X-007503Y-002823X0197Y0000R000S1004824387
317GND              VIA        MD0118PA00X+014171Y+003739X0197Y0000R000S1004824387
317GND              VIA        MD0118PA00X-012950Y+001500X0197Y0000R000S1004824387
317GND              VIA        MD0118PA00X-003950Y+000850X0197Y0000R000S1004824387
317GND              VIA        MD0118PA00X+009976Y-001072X0197Y0000R000S1004824387
317GND              VIA        MD0118PA00X-010510Y+006550X0197Y0000R000S1004824387
317GND              VIA        MD0118PA00X+001198Y-001702X0197Y0000R000S1004824387
317GND              VIA        MD0118PA00X+003000Y+001480X0197Y0000R000S1004824387
317GND              VIA        MD0118PA00X+008406Y-002199X0197Y0000R000S1004824387
317GND              VIA        MD0118PA00X-010930Y+002500X0197Y0000R000S1004824387
317GND              VIA        MD0118PA00X-005077Y-000373X0197Y0000R000S1004824387
317GND              VIA        MD0118PA00X+010780Y-006520X0197Y0000R000S1004824387
317GND              VIA        MD0118PA00X+002600Y+000350X0197Y0000R000S1004824387
317GND              VIA        MD0118PA00X+002077Y-003224X0197Y0000R000S1004824387
317GND              VIA        MD0118PA00X-006592Y+002818X0197Y0000R000S1004824387
317GND              VIA        MD0118PA00X-013350Y+002100X0197Y0000R000S1004824387
317GND              VIA        MD0118PA00X-014150Y+001500X0197Y0000R000S1004824387
317GND              VIA        MD0118PA00X-012500Y+002500X0197Y0000R000S1004824387
317GND              VIA        MD0118PA00X+005200Y-000300X0197Y0000R000S1004824387
317GND              VIA        MD0118PA00X-002050Y-000200X0197Y0000R000S1004824387
317GND              VIA        MD0118PA00X+001250Y-000650X0197Y0000R000S1004824387
317GND              VIA        MD0118PA00X-004400Y-004750X0197Y0000R000S1004824387
317GND              VIA        MD0118PA00X-001250Y+006200X0197Y0000R000S1004824387
317GND              VIA        MD0118PA00X+005170Y+002330X0197Y0000R000S1004824387
317GND              VIA        MD0118PA00X-003692Y-002618X0197Y0000R000S1004824387
317GND              VIA        MD0118PA00X+003050Y+000800X0197Y0000R000S1004824387
317GND              VIA        MD0118PA00X-006000Y-003550X0197Y0000R000S1004824387
317GND              VIA        MD0118PA00X-006000Y+002600X0197Y0000R000S1004824387
317GND              VIA        MD0118PA00X+011753Y-004400X0197Y0000R000S1004824387
317GND              VIA        MD0118PA00X+000400Y+006200X0197Y0000R000S1004824387
317GND              VIA        MD0118PA00X+001500Y-006350X0197Y0000R000S1004824387
317GND              VIA        MD0118PA00X-006002Y+000900X0197Y0000R000S1004824387
317GND              VIA        MD0118PA00X-009000Y+006750X0197Y0000R000S1004824387
317GND              VIA        MD0118PA00X+001250Y+005600X0197Y0000R000S1004824387
317GND              VIA        MD0118PA00X+001250Y+004400X0197Y0000R000S1004824387
317GND              VIA        MD0118PA00X-000484Y-001379X0197Y0000R000S1004824387
317GND              VIA        MD0118PA00X+001750Y+001500X0197Y0000R000S1004824387
317GND              VIA        MD0118PA00X+005600Y+000100X0197Y0000R000S1004824387
317GND              VIA        MD0118PA00X+007755Y-000990X0197Y0000R000S1004824387
317GND              VIA        MD0118PA00X+006390Y+003730X0197Y0000R000S1004824387
317GND              VIA        MD0118PA00X+000850Y+003200X0197Y0000R000S1004824387
317GND              VIA        MD0118PA00X+005698Y-002072X0197Y0000R000S1004824387
317GND              VIA        MD0118PA00X-002080Y-006838X0197Y0000R000S1004824387
317GND              VIA        MD0118PA00X-014550Y+001500X0197Y0000R000S1004824387
317GND              VIA        MD0118PA00X+000950Y+000350X0197Y0000R000S1004824387
317GND              VIA        MD0118PA00X+006970Y-000471X0197Y0000R000S1004824387
317GND              VIA        MD0118PA00X-000400Y+005000X0197Y0000R000S1004824387
317GND              VIA        MD0118PA00X-002250Y+006750X0197Y0000R000S1004824387
317GND              VIA        MD0118PA00X+012340Y+003070X0197Y0000R000S1004824387
317GND              VIA        MD0118PA00X+000000Y+003800X0197Y0000R000S1004824387
317GND              VIA        MD0118PA00X+008960Y-005270X0197Y0000R000S1004824387
317GND              VIA        MD0118PA00X-005852Y-002520X0197Y0000R000S1004824387
317GND              VIA        MD0118PA00X+001250Y-001200X0197Y0000R000S1004824387
317GND              VIA        MD0118PA00X+009690Y-004830X0197Y0000R000S1004824387
317GND              VIA        MD0118PA00X+012603Y-004853X0197Y0000R000S1004824387
317GND              VIA        MD0118PA00X+006450Y-002350X0197Y0000R000S1004824387
317GND              VIA        MD0118PA00X-007212Y-006038X0197Y0000R000S1004824387
317GND              VIA        MD0118PA00X-000047Y-004823X0197Y0000R000S1004824387
317GND              VIA        MD0118PA00X+001880Y-005105X0197Y0000R000S1004824387
317GND              VIA        MD0118PA00X+006440Y+002820X0197Y0000R000S1004824387
317GND              VIA        MD0118PA00X+009000Y+006750X0197Y0000R000S1004824387
317GND              VIA        MD0118PA00X+011780Y-004640X0197Y0000R000S1004824387
317GND              VIA        MD0118PA00X-010520Y+005240X0197Y0000R000S1004824387
317GND              VIA        MD0118PA00X+000000Y+000200X0197Y0000R000S1004824387
317GND              VIA        MD0118PA00X-010880Y+001660X0197Y0000R000S1004824387
317GND              VIA        MD0118PA00X-004250Y+000800X0197Y0000R000S1004824387
317GND              VIA        MD0118PA00X+000400Y+002600X0197Y0000R000S1004824387
317GND              VIA        MD0118PA00X+006440Y+001020X0197Y0000R000S1004824387
317GND              VIA        MD0118PA00X+002000Y-004450X0197Y0000R000S1004824387
317GND              VIA        MD0118PA00X+011950Y+006050X0197Y0000R000S1004824387
317GND              VIA        MD0118PA00X-011300Y+004950X0197Y0000R000S1004824387
317GND              VIA        MD0118PA00X+012240Y-006560X0197Y0000R000S1004824387
317GND              VIA        MD0118PA00X+008780Y-000770X0197Y0000R000S1004824387
317GND              VIA        MD0118PA00X+002594Y-006838X0197Y0000R000S1004824387
317GND              VIA        MD0118PA00X-005800Y+002850X0197Y0000R000S1004824387
317GND              VIA        MD0118PA00X+008359Y-000978X0197Y0000R000S1004824387
317GND              VIA        MD0118PA00X-006000Y+003100X0197Y0000R000S1004824387
317GND              VIA        MD0118PA00X+014171Y+003439X0197Y0000R000S1004824387
317GND              VIA        MD0118PA00X+009090Y-004460X0197Y0000R000S1004824387
317GND              VIA        MD0118PA00X+002050Y-000750X0197Y0000R000S1004824387
317GND              VIA        MD0118PA00X+007650Y-003838X0197Y0000R000S1004824387
317GND              VIA        MD0118PA00X+000100Y-000800X0197Y0000R000S1004824387
317GND              VIA        MD0118PA00X+002250Y+006750X0197Y0000R000S1004824387
317GND              VIA        MD0118PA00X+008096Y+000000X0197Y0000R000S1004824387
317GND              VIA        MD0118PA00X-014150Y-000300X0197Y0000R000S1004824387
317GND              VIA        MD0118PA00X-000850Y+003200X0197Y0000R000S1004824387
317GND              VIA        MD0118PA00X+012944Y-004675X0197Y0000R000S1004824387
317GND              VIA        MD0118PA00X+005369Y-003325X0197Y0000R000S1004824387
317GND              VIA        MD0118PA00X+001250Y+003800X0197Y0000R000S1004824387
317GND              VIA        MD0118PA00X+000400Y+002000X0197Y0000R000S1004824387
317GND              VIA        MD0118PA00X+010791Y-005574X0197Y0000R000S1004824387
317GND              VIA        MD0118PA00X-001810Y-002720X0197Y0000R000S1004824387
317GND              VIA        MD0118PA00X+001250Y+002000X0197Y0000R000S1004824387
317GND              VIA        MD0118PA00X+008700Y-004140X0197Y0000R000S1004824387
317GND              VIA        MD0118PA00X-010900Y+003600X0197Y0000R000S1004824387
317GND              VIA        MD0118PA00X-005080Y-001050X0197Y0000R000S1004824387
317GND              VIA        MD0118PA00X+000400Y+000200X0197Y0000R000S1004824387
317GND              VIA        MD0118PA00X-006398Y+001300X0197Y0000R000S1004824387
317GND              VIA        MD0118PA00X-007500Y+006750X0197Y0000R000S1004824387
317GND              VIA        MD0118PA00X-014150Y-000900X0197Y0000R000S1004824387
317GND              VIA        MD0118PA00X+003840Y-006210X0197Y0000R000S1004824387
317GND              VIA        MD0118PA00X+003750Y+006750X0197Y0000R000S1004824387
317GND              VIA        MD0118PA00X+000860Y-005180X0197Y0000R000S1004824387
317GND              VIA        MD0118PA00X+007780Y-002600X0197Y0000R000S1004824387
317GND              VIA        MD0118PA00X+000850Y+006200X0197Y0000R000S1004824387
317GND              VIA        MD0118PA00X-002200Y+001300X0197Y0000R000S1004824387
317GND              VIA        MD0118PA00X-006000Y+006750X0197Y0000R000S1004824387
317GND              VIA        MD0118PA00X-000850Y+005600X0197Y0000R000S1004824387
317GND              VIA        MD0118PA00X-001500Y+006750X0197Y0000R000S1004824387
317GND              VIA        MD0118PA00X-000400Y-000350X0197Y0000R000S1004824387
317GND              VIA        MD0118PA00X+011590Y+005820X0197Y0000R000S1004824387
317GND              VIA        MD0118PA00X+005600Y+003100X0197Y0000R000S1004824387
317GND              VIA        MD0118PA00X-012950Y+000900X0197Y0000R000S1004824387
317GND              VIA        MD0118PA00X-003360Y-002460X0197Y0000R000S1004824387
317GND              VIA        MD0118PA00X+005170Y+002810X0197Y0000R000S1004824387
317GND              VIA        MD0118PA00X+011990Y-000340X0197Y0000R000S1004824387
317GND              VIA        MD0118PA00X+010000Y-005260X0197Y0000R000S1004824387
317GND              VIA        MD0118PA00X+011137Y-005640X0197Y0000R000S1004824387
317GND              VIA        MD0118PA00X-014550Y-000900X0197Y0000R000S1004824387
317GND              VIA        MD0118PA00X-006420Y+000740X0197Y0000R000S1004824387
317GND              VIA        MD0118PA00X+001000Y+001050X0197Y0000R000S1004824387
317GND              VIA        MD0118PA00X+002200Y+000900X0197Y0000R000S1004824387
317GND              VIA        MD0118PA00X+005350Y-005200X0197Y0000R000S1004824387
317GND              VIA        MD0118PA00X-000850Y+004400X0197Y0000R000S1004824387
317GND              VIA        MD0118PA00X+008740Y-001692X0197Y0000R000S1004824387
317GND              VIA        MD0118PA00X+010000Y-005660X0197Y0000R000S1004824387
317GND              VIA        MD0118PA00X-000750Y+000200X0197Y0000R000S1004824387
317GND              VIA        MD0118PA00X+009460Y-001480X0197Y0000R000S1004824387
317GND              VIA        MD0118PA00X+009580Y-000670X0197Y0000R000S1004824387
317GND              VIA        MD0118PA00X-006440Y+002600X0197Y0000R000S1004824387
317GND              VIA        MD0118PA00X-006460Y+003380X0197Y0000R000S1004824387
317GND              VIA        MD0118PA00X-001020Y+001150X0197Y0000R000S1004824387
317GND              VIA        MD0118PA00X-004132Y-001346X0197Y0000R000S1004824387
317GND              VIA        MD0118PA00X+005600Y+001750X0197Y0000R000S1004824387
317GND              VIA        MD0118PA00X-013350Y+000900X0197Y0000R000S1004824387
317GND              VIA        MD0118PA00X+006120Y+002820X0197Y0000R000S1004824387
317GND              VIA        MD0118PA00X+012320Y+005584X0197Y0000R000S1004824387
317GND              VIA        MD0118PA00X-004100Y+001150X0197Y0000R000S1004824387
317GND              VIA        MD0118PA00X-005050Y-002950X0197Y0000R000S1004824387
317GND              VIA        MD0118PA00X-013750Y+000900X0197Y0000R000S1004824387
317GND              VIA        MD0118PA00X+010550Y+006250X0197Y0000R000S1004824387
317GND              VIA        MD0118PA00X+007484Y-000468X0197Y0000R000S1004824387
317GND              VIA        MD0118PA00X+007300Y-003838X0197Y0000R000S1004824387
317GND              VIA        MD0118PA00X-003000Y-002870X0197Y0000R000S1004824387
317GND              VIA        MD0118PA00X-006740Y-001012X0197Y0000R000S1004824387
317GND              VIA        MD0118PA00X+010340Y-003400X0197Y0000R000S1004824387
317GND              VIA        MD0118PA00X+007780Y-003060X0197Y0000R000S1004824387
317GND              VIA        MD0118PA00X-003021Y+001490X0197Y0000R000S1004824387
317GND              VIA        MD0118PA00X+010590Y-003080X0197Y0000R000S1004824387
317GND              VIA        MD0118PA00X-003512Y-000150X0197Y0000R000S1004824387
317GND              VIA        MD0118PA00X+005480Y+003350X0197Y0000R000S1004824387
317GND              VIA        MD0118PA00X-006440Y+002320X0197Y0000R000S1004824387
317GND              VIA        MD0118PA00X+012040Y-000700X0197Y0000R000S1004824387
317GND              VIA        MD0118PA00X-000400Y+005600X0197Y0000R000S1004824387
317NET-(D4-A)       VIA        MD0118PA00X-003072Y-006422X0197Y0000R000S1004824387
317NET-(D4-A)       VIA        MD0118PA00X-006439Y-006061X0197Y0000R000S1004824387
317VOUT_N           VIA        MD0118PA00X-007870Y+005380X0197Y0000R000S1004824387
317VOUT_N           VIA        MD0118PA00X-002577Y-001777X0197Y0000R000S1004824387
317VOUT             VIA        MD0118PA00X-003434Y-001466X0197Y0000R000S1004824387
317VOUT             VIA        MD0118PA00X-000515Y-004655X0197Y0000R000S1004824387
317VOUT             VIA        MD0118PA00X-011350Y-002400X0197Y0000R000S1004824387
317VOUT             VIA        MD0118PA00X-007400Y-003200X0197Y0000R000S1004824387
317VOUT             VIA        MD0118PA00X-003790Y-001420X0197Y0000R000S1004824387
317VOUT             VIA        MD0118PA00X-002181Y-002757X0197Y0000R000S1004824387
3176V               VIA        MD0118PA00X+005385Y-002162X0197Y0000R000S1004824387
3176V               VIA        MD0118PA00X+003850Y-001750X0197Y0000R000S1004824387
317NET-(U7A--)      VIA        MD0118PA00X+011430Y-001890X0197Y0000R000S1004824387
317NET-(U7A--)      VIA        MD0118PA00X+012580Y+002580X0197Y0000R000S1004824387
317/USB_DP          VIA        MD0118PA00X+007950Y-005641X0197Y0000R000S1004824387
317/USB_DP          VIA        MD0118PA00X+012581Y-002738X0197Y0000R000S1004824387
317/QC_DP_PU        VIA        MD0118PA00X+005950Y-005200X0197Y0000R000S1004824387
317/QC_DP_PU        VIA        MD0118PA00X+008142Y-005019X0197Y0000R000S1004824387
3173V3              VIA        MD0118PA00X-001795Y-004367X0197Y0000R000S1004824387
3173V3              VIA        MD0118PA00X-006583Y-002821X0197Y0000R000S1004824387
3173V3              VIA        MD0118PA00X-006251Y-004200X0197Y0000R000S1004824387
3173V3              VIA        MD0118PA00X+006050Y-001568X0197Y0000R000S1004824387
3173V3              VIA        MD0118PA00X-001802Y-003827X0197Y0000R000S1004824387
3173V3              VIA        MD0118PA00X+005832Y-001568X0197Y0000R000S1004824387
317/PW_DISC_IC      VIA        MD0118PA00X-006832Y-006049X0197Y0000R000S1004824387
317/PW_DISC_IC      VIA        MD0118PA00X-003316Y-006077X0197Y0000R000S1004824387
317/QC_DN_PD        VIA        MD0118PA00X-002757Y-006572X0197Y0000R000S1004824387
317/QC_DN_PD        VIA        MD0118PA00X+007750Y-006631X0197Y0000R000S1004824387
317/QC_DN_PU        VIA        MD0118PA00X+008150Y-006631X0197Y0000R000S1004824387
317/QC_DN_PU        VIA        MD0118PA00X-002500Y-006399X0197Y0000R000S1004824387
317/CH32_DP         VIA        MD0118PA00X+006581Y-006548X0197Y0000R000S1004824387
317/CH32_DP         VIA        MD0118PA00X+006179Y-006548X0197Y0000R000S1004824387
317/SWDIO_IC        VIA        MD0118PA00X-001534Y-006079X0197Y0000R000S1004824387
317/SWCLK_IC        VIA        MD0118PA00X-001790Y-005926X0197Y0000R000S1004824387
317/QC_DP_PD        VIA        MD0118PA00X+006192Y-005019X0197Y0000R000S1004824387
317/QC_DP_PD        VIA        MD0118PA00X+007748Y-005019X0197Y0000R000S1004824387
317/USB_CC1         VIA        MD0118PA00X+003350Y-004884X0197Y0000R000S1004824387
317/USB_CC1         VIA        MD0118PA00X+011597Y-003377X0197Y0000R000S1004824387
317/USB_CC2         VIA        MD0118PA00X+003694Y-004710X0197Y0000R000S1004824387
317/USB_CC2         VIA        MD0118PA00X+011291Y-003371X0197Y0000R000S1004824387
317/FAN_CTRL_IC     VIA        MD0118PA00X+008058Y-001928X0197Y0000R000S1004824387
317/FAN_CTRL_IC     VIA        MD0118PA00X+009000Y-001900X0197Y0000R000S1004824387
317NET-(J5-PIN_5)   VIA        MD0118PA00X+003984Y-004250X0197Y0000R000S1004824387
317/ADIN_IC         VIA        MD0118PA00X-000574Y-004126X0197Y0000R000S1004824387
317/ADIN_IC         VIA        MD0118PA00X+000600Y+001100X0197Y0000R000S1004824387
317/ADIN_IC         VIA        MD0118PA00X+000129Y-003900X0197Y0000R000S1004824387
317VIN              VIA        MD0118PA00X+008300Y+000390X0197Y0000R000S1004824387
317VIN              VIA        MD0118PA00X+001674Y-004921X0197Y0000R000S1004824387
317VIN              VIA        MD0118PA00X-001704Y-003198X0197Y0000R000S1004824387
317VIN              VIA        MD0118PA00X+011460Y-005690X0197Y0000R000S1004824387
317VIN              VIA        MD0118PA00X+011715Y-005689X0197Y0000R000S1004824387
317VIN              VIA        MD0118PA00X+010340Y-000820X0197Y0000R000S1004824387
317VIN              VIA        MD0118PA00X+011470Y-004090X0197Y0000R000S1004824387
317VIN              VIA        MD0118PA00X+007960Y+000390X0197Y0000R000S1004824387
317VIN              VIA        MD0118PA00X+002311Y-003910X0197Y0000R000S1004824387
317VIN              VIA        MD0118PA00X+007680Y+005369X0197Y0000R000S1004824387
317NET-(CI7-PAD2)   VIA        MD0118PA00X+005854Y+005369X0197Y0000R000S1004824387
317NET-(CI7-PAD2)   VIA        MD0118PA00X+002311Y-003530X0197Y0000R000S1004824387
317/SW2_IC          VIA        MD0118PA00X+001728Y-002294X0197Y0000R000S1004824387
317/SW2_IC          VIA        MD0118PA00X+003557Y+003625X0197Y0000R000S1004824387
317/CAP_GATE        VIA        MD0118PA00X+010622Y-000031X0197Y0000R000S1004824387
317/CAP_GATE        VIA        MD0118PA00X+010730Y-001640X0197Y0000R000S1004824387
317NET-(D3-A)       VIA        MD0118PA00X+010942Y-001947X0197Y0000R000S1004824387
317NET-(D3-A)       VIA        MD0118PA00X+008255Y+003560X0197Y0000R000S1004824387
317NET-(D3-A)       VIA        MD0118PA00X+010110Y+003000X0197Y0000R000S1004824387
317VUSB             VIA        MD0118PA00X+010600Y+000490X0197Y0000R000S1004824387
317VUSB             VIA        MD0118PA00X+011179Y-001397X0197Y0000R000S1004824387
317/VOUT_P          VIA        MD0118PA00X-002250Y-001850X0197Y0000R000S1004824387
317/VOUT_P          VIA        MD0118PA00X-006070Y+005369X0197Y0000R000S1004824387
317/SW1_IC          VIA        MD0118PA00X-000267Y-001165X0197Y0000R000S1004824387
317/SW1_IC          VIA        MD0118PA00X-003520Y+005390X0197Y0000R000S1004824387
317/USB_DN          VIA        MD0118PA00X+007931Y-006019X0197Y0000R000S1004824387
317/USB_DN          VIA        MD0118PA00X+012576Y-002984X0197Y0000R000S1004824387
317VDC              VIA        MD0118PA00X+010379Y+003462X0197Y0000R000S1004824387
317VDC              VIA        MD0118PA00X+008920Y+005340X0197Y0000R000S1004824387
317VDC              VIA        MD0118PA00X+009320Y+004540X0197Y0000R000S1004824387
317VDC              VIA        MD0118PA00X+009720Y+004940X0197Y0000R000S1004824387
317VDC              VIA        MD0118PA00X+008920Y+004940X0197Y0000R000S1004824387
317VDC              VIA        MD0118PA00X+008920Y+004140X0197Y0000R000S1004824387
317VDC              VIA        MD0118PA00X+010120Y+004940X0197Y0000R000S1004824387
317VDC              VIA        MD0118PA00X+012275Y+004052X0197Y0000R000S1004824387
317VDC              VIA        MD0118PA00X+010700Y+003840X0197Y0000R000S1004824387
317VDC              VIA        MD0118PA00X+010700Y+005520X0197Y0000R000S1004824387
317VDC              VIA        MD0118PA00X+009720Y+004540X0197Y0000R000S1004824387
317VDC              VIA        MD0118PA00X+010700Y+004260X0197Y0000R000S1004824387
317VDC              VIA        MD0118PA00X+012270Y+003670X0197Y0000R000S1004824387
317VDC              VIA        MD0118PA00X+010700Y+005100X0197Y0000R000S1004824387
317VDC              VIA        MD0118PA00X+010120Y+004540X0197Y0000R000S1004824387
317VDC              VIA        MD0118PA00X+010120Y+004140X0197Y0000R000S1004824387
317VDC              VIA        MD0118PA00X+009320Y+004940X0197Y0000R000S1004824387
317VDC              VIA        MD0118PA00X+011580Y+004660X0197Y0000R000S1004824387
317VDC              VIA        MD0118PA00X+012009Y+003454X0197Y0000R000S1004824387
317VDC              VIA        MD0118PA00X+009720Y+005340X0197Y0000R000S1004824387
317VDC              VIA        MD0118PA00X+010700Y+004640X0197Y0000R000S1004824387
317VDC              VIA        MD0118PA00X+011120Y+005100X0197Y0000R000S1004824387
317VDC              VIA        MD0118PA00X+009320Y+005340X0197Y0000R000S1004824387
317VDC              VIA        MD0118PA00X+009720Y+003740X0197Y0000R000S1004824387
317VDC              VIA        MD0118PA00X+012249Y+004451X0197Y0000R000S1004824387
317VDC              VIA        MD0118PA00X+009320Y+003740X0197Y0000R000S1004824387
317VDC              VIA        MD0118PA00X+010120Y+005340X0197Y0000R000S1004824387
317VDC              VIA        MD0118PA00X+011140Y+004650X0197Y0000R000S1004824387
317VDC              VIA        MD0118PA00X+008920Y+003740X0197Y0000R000S1004824387
317VDC              VIA        MD0118PA00X+011610Y+003440X0197Y0000R000S1004824387
317VDC              VIA        MD0118PA00X+010120Y+003740X0197Y0000R000S1004824387
317VDC              VIA        MD0118PA00X+010700Y+003440X0197Y0000R000S1004824387
317VDC              VIA        MD0118PA00X+011160Y+003440X0197Y0000R000S1004824387
317VDC              VIA        MD0118PA00X+009720Y+004140X0197Y0000R000S1004824387
317VDC              VIA        MD0118PA00X+011920Y+004640X0197Y0000R000S1004824387
317VDC              VIA        MD0118PA00X+009320Y+004140X0197Y0000R000S1004824387
317VDC              VIA        MD0118PA00X+011580Y+005100X0197Y0000R000S1004824387
317VDC              VIA        MD0118PA00X+011120Y+005520X0197Y0000R000S1004824387
317VDC              VIA        MD0118PA00X+008920Y+004540X0197Y0000R000S1004824387
317/HD2_IC          VIA        MD0118PA00X+003101Y+004210X0197Y0000R000S1004824387
317/HD2_IC          VIA        MD0118PA00X+001120Y-002730X0197Y0000R000S1004824387
317/LD2_IC          VIA        MD0118PA00X+005030Y+003600X0197Y0000R000S1004824387
317/LD2_IC          VIA        MD0118PA00X+001131Y-002300X0197Y0000R000S1004824387
317/LD1_IC          VIA        MD0118PA00X-005200Y+002100X0197Y0000R000S1004824387
317/LD1_IC          VIA        MD0118PA00X+000286Y-001787X0197Y0000R000S1004824387
317/HD1_IC          VIA        MD0118PA00X-000071Y-001800X0197Y0000R000S1004824387
317/HD1_IC          VIA        MD0118PA00X-003070Y+005900X0197Y0000R000S1004824387
327GND              D4    -1          A01X-006446Y-005422X0232Y0252R090S2
327NET-(D4-A)       D4    -2          A01X-006446Y-005803X0232Y0252R090S2
327VOUT_N           RS10  -1          A01X-009007Y+000356X0482Y1043R090S2
327VOUT             RS10  -2          A01X-009007Y-001465X0482Y1043R090S2
3276V               D2    -1          A01X+008550Y-000600X0197Y0197R090S2
327NET-(D2-A)       D2    -2          A01X+008550Y-001466X0197Y0197R090S2
327GND              R50   -1          A01X+012320Y+005359X0232Y0252R090S2
327NET-(U7A--)      R50   -2          A01X+012320Y+004977X0232Y0252R090S2
327GND              C9    -1          A01X-001561Y-002720X0232Y0252R000S2
327{SLASH}DITHER)   C9    -2          A01X-001179Y-002720X0232Y0252R000S2
327/USB_DP          R34   -1          A01X+008150Y-005641X0232Y0252R270S2
327/QC_DP_PU        R34   -2          A01X+008150Y-005259X0232Y0252R270S2
3273V3              U2    -1          A01X-001970Y-004423X0051Y0051R090S2
327/PWR_INT_IC      U2    -2          A01X-002128Y-004423X0315Y0079R090S2
327/PWR_SDA_IC      U2    -3          A01X-002285Y-004423X0315Y0079R090S2
327/PWR_SCL_IC      U2    -4          A01X-002443Y-004423X0315Y0079R090S2
327/PWR_STOP        U2    -5          A01X-002600Y-004423X0315Y0079R090S2
327/PWR_CE          U2    -6          A01X-002758Y-004423X0315Y0079R090S2
327/VIN_ADC_IC      U2    -7          A01X-002915Y-004423X0315Y0079R090S2
327/USART2_TX_IC    U2    -8          A01X-003073Y-004423X0051Y0051R090S2
327/USART2_RX_IC    U2    -9          A01X-003289Y-004640X0051Y0051R090S2
327/SPI1_NSS_IC     U2    -10         A01X-003289Y-004797X0079Y0315R090S2
327/SPI1_SCK_IC     U2    -11         A01X-003289Y-004955X0079Y0315R090S2
327/SPI1_MOSI_IC    U2    -12         A01X-003289Y-005112X0079Y0315R090S2
327/SPI1_MISO_IC    U2    -13         A01X-003289Y-005270X0079Y0315R090S2
327/SENSE_ALT_IC    U2    -14         A01X-003289Y-005427X0079Y0315R090S2
327/SENSE_SDA_IC    U2    -15         A01X-003289Y-005585X0079Y0315R090S2
327/LED_RUN         U2    -16         A01X-003289Y-005742X0051Y0051R090S2
327/SENSE_SCL_IC    U2    -17         A01X-003073Y-005959X0051Y0051R090S2
327/PW_DISC_IC      U2    -18         A01X-002915Y-005959X0315Y0079R090S2
327/QC_DN_PD        U2    -19         A01X-002758Y-005959X0315Y0079R090S2
327/QC_DN_PU        U2    -20         A01X-002600Y-005959X0315Y0079R090S2
327/CH32_DN         U2    -21         A01X-002443Y-005959X0315Y0079R090S2
327/CH32_DP         U2    -22         A01X-002285Y-005959X0315Y0079R090S2
327/SWDIO_IC        U2    -23         A01X-002128Y-005959X0315Y0079R090S2
327/SWCLK_IC        U2    -24         A01X-001970Y-005959X0051Y0051R090S2
327/QC_DP_PU        U2    -25         A01X-001754Y-005742X0051Y0051R090S2
327/QC_DP_PD        U2    -26         A01X-001754Y-005585X0079Y0315R090S2
327/PB3_IC          U2    -27         A01X-001754Y-005427X0079Y0315R090S2
327/PB4_IC          U2    -28         A01X-001754Y-005270X0079Y0315R090S2
327/USB_CC1         U2    -29         A01X-001754Y-005112X0079Y0315R090S2
327/USB_CC2         U2    -30         A01X-001754Y-004955X0079Y0315R090S2
327/BOOT0           U2    -31         A01X-001754Y-004797X0079Y0315R090S2
327/FAN_CTRL_IC     U2    -32         A01X-001754Y-004640X0051Y0051R090S2
317GND              U2    -33   D0118PA00X-002187Y-004857X0177Y0000R090S3
317GND              U2    -33   D0118PA00X-002522Y-004857X0177Y0000R090S3
317GND              U2    -33   D0118PA00X-002856Y-004857X0177Y0000R090S3
317GND              U2    -33   D0118PA00X-002187Y-005191X0177Y0000R090S3
317GND              U2    -33   D0118PA00X-002522Y-005191X0177Y0000R090S3
327GND              U2    -33         A04X-002522Y-005191X0866Y0866R090S3
327GND              U2    -33         A01X-002522Y-005191X1043Y1043R090S2
317GND              U2    -33   D0118PA00X-002856Y-005191X0177Y0000R090S3
317GND              U2    -33   D0118PA00X-002187Y-005526X0177Y0000R090S3
317GND              U2    -33   D0118PA00X-002522Y-005526X0177Y0000R090S3
317GND              U2    -33   D0118PA00X-002856Y-005526X0177Y0000R090S3
317GND              J5    -1    D0394PA00X+004700Y-000250X0551Y0551R000S0
3173V3              J5    -2    D0394PA00X+004700Y-001250X0551Y0551R000S0
317/PB4             J5    -3    D0394PA00X+004700Y-002250X0551Y0551R000S0
317/PB3             J5    -4    D0394PA00X+004700Y-003250X0551Y0551R000S0
317NET-(J5-PIN_5)   J5    -5    D0394PA00X+004700Y-004250X0551Y0551R000S0
317/EXT_DN          J5    -6    D0394PA00X+004700Y-005250X0551Y0551R000S0
317/EXT_DP          J5    -7    D0394PA00X+004700Y-006250X0551Y0551R000S0
3273V3              R20   -1          A01X-000771Y-005140X0232Y0252R000S2
327/ADIN_IC         R20   -2          A01X-000389Y-005140X0232Y0252R000S2
327NET-(U4-FB)      RD5   -1          A01X+005991Y-004563X0232Y0252R180S2
3276V               RD5   -2          A01X+005609Y-004563X0232Y0252R180S2
327/ADIN_IC         TH1   -1          A01X+000310Y+001100X0344Y0374R180S2
327GND              TH1   -2          A01X-000310Y+001100X0344Y0374R180S2
327/SPI1_NSS_IC     R23   -1          A01X-005550Y-003572X0232Y0252R270S2
327/SPI1_NSS        R23   -2          A01X-005550Y-003190X0232Y0252R270S2
327VOUT             C4    -1          A01X-000620Y-001627X0232Y0252R270S2
327GND              C4    -2          A01X-000620Y-001245X0232Y0252R270S2
327GND              CO3   -1          A01X-006825Y+003270X0492Y0689R180S2
327VOUT_N           CO3   -2          A01X-007927Y+003270X0492Y0689R180S2
327VOUT             C6    -1          A01X-001113Y-001208X0344Y0374R270S2
327GND              C6    -2          A01X-001113Y-000588X0344Y0374R270S2
327VIN              RS7   -1          A01X+007674Y+004744X0482Y1043R180S2
327NET-(CI7-PAD2)   RS7   -2          A01X+005854Y+004744X0482Y1043R180S2
327/VBUS_FB_IC      R6    -1          A01X+000128Y-004587X0232Y0252R180S2
327VOUT             R6    -2          A01X-000253Y-004587X0232Y0252R180S2
3273V3              R8    -1          A01X-002031Y-003827X0232Y0252R180S2
327/PWR_SCL_IC      R8    -2          A01X-002412Y-003827X0232Y0252R180S2
327NET-(U5-FB)      RD1   -1          A01X+009045Y-006381X0232Y0252R270S2
327GND              RD1   -2          A01X+009045Y-005999X0232Y0252R270S2
327/BT2_IC          CB1   -1          A01X+001400Y-002741X0232Y0252R270S2
327/SW2_IC          CB1   -2          A01X+001400Y-002359X0232Y0252R270S2
327/BOOT0           R27   -1          A01X+003100Y-004460X0232Y0252R225S2
327GND              R27   -2          A01X+002830Y-004190X0232Y0252R225S2
327/CAP_GATE        C18   -1          A01X+009789Y-002380X0232Y0252R000S2
327NET-(D3-A)       C18   -2          A01X+010171Y-002380X0232Y0252R000S2
327GND              R51   -1          A01X+012740Y-005531X0232Y0252R270S2
327VUSB             R51   -2          A01X+012740Y-005149X0232Y0252R270S2
327GND              R40   -1          A01X-007212Y-005805X0232Y0252R270S2
327NET-(Q5-G)       R40   -2          A01X-007212Y-005423X0232Y0252R270S2
327/VOUT_P          RS2   -1          A01X-006046Y+005994X0482Y1043R180S2
327VOUT_N           RS2   -2          A01X-007866Y+005994X0482Y1043R180S2
327GND              CI3   -1          A01X+006303Y+003270X0492Y0689R000S2
327VIN              CI3   -2          A01X+007405Y+003270X0492Y0689R000S2
327NET-(CI7-PAD2)   RS4   -1          A01X+002041Y-003530X0232Y0252R180S2
327/SNS2P           RS4   -2          A01X+001659Y-003530X0232Y0252R180S2
317GND              H2    -1    D0157PA00X-014650Y-006000X0276Y0000R000S0
317GND              H2    -1    D0157PA00X-014459Y-005541X0276Y0000R000S0
317GND              H2    -1    D0157PA00X-014459Y-006459X0276Y0000R000S0
317GND              H2    -1    D0157PA00X-014000Y-005350X0276Y0000R000S0
317GND              H2    -1    D0866PA00X-014000Y-006000X1732Y0000R000S0
317GND              H2    -1    D0157PA00X-014000Y-006650X0276Y0000R000S0
317GND              H2    -1    D0157PA00X-013541Y-005541X0276Y0000R000S0
317GND              H2    -1    D0157PA00X-013541Y-006459X0276Y0000R000S0
317GND              H2    -1    D0157PA00X-013350Y-006000X0276Y0000R000S0
327GND              CO5   -1          A01X-006825Y+001466X0492Y0689R180S2
327VOUT_N           CO5   -2          A01X-007927Y+001466X0492Y0689R180S2
327/VIN_ADC_IC      R38   -1          A01X-002938Y-003582X0232Y0252R180S2
327GND              R38   -2          A01X-003320Y-003582X0232Y0252R180S2
327NET-(U5-BS)      U5    -1          A01X+009567Y-005476X0417Y0256R000S2
327GND              U5    -2          A01X+009567Y-005850X0417Y0256R000S2
327NET-(U5-FB)      U5    -3          A01X+009567Y-006224X0417Y0256R000S2
327NET-(U5-EN)      U5    -4          A01X+010433Y-006224X0417Y0256R000S2
327VIN              U5    -5          A01X+010433Y-005850X0417Y0256R000S2
327NET-(D7-K)       U5    -6          A01X+010433Y-005476X0417Y0256R000S2
327NET-(Q5-G)       Q5    -1          A01X-008514Y-005706X0354Y0315R270S2
327GND              Q5    -2          A01X-007766Y-005706X0354Y0315R270S2
327NET-(Q5-D)       Q5    -3          A01X-008140Y-004918X0354Y0315R270S2
327GND              R43   -1          A01X+010171Y-003140X0232Y0252R180S2
327/FAN_CTRL        R43   -2          A01X+009789Y-003140X0232Y0252R180S2
327NET-(U4-FB)      RD4   -1          A01X+006373Y-004356X0232Y0252R270S2
327GND              RD4   -2          A01X+006373Y-003974X0232Y0252R270S2
327/SW2_IC          C11   -1          A01X+004315Y+001516X0232Y0252R000S2
327NET-(C11-PAD2)   C11   -2          A01X+004697Y+001516X0232Y0252R000S2
327GND              CI10  -1          A01X+009541Y+006120X0492Y0689R180S2
327VIN              CI10  -2          A01X+008439Y+006120X0492Y0689R180S2
327GND              U3    -1          A01X-007241Y-004082X0571Y0118R270S2
327GND              U3    -2          A01X-007044Y-004082X0571Y0118R270S2
327/SENSE_ALT_IC    U3    -3          A01X-006847Y-004082X0571Y0118R270S2
327/SENSE_SDA_IC    U3    -4          A01X-006650Y-004082X0571Y0118R270S2
327/SENSE_SCL_IC    U3    -5          A01X-006453Y-004082X0571Y0118R270S2
3273V3              U3    -6          A01X-006453Y-002350X0571Y0118R270S2
327GND              U3    -7          A01X-006650Y-002350X0571Y0118R270S2
327VOUT             U3    -8          A01X-006847Y-002350X0571Y0118R270S2
327NET-(U3-VIN-)    U3    -9          A01X-007044Y-002350X0571Y0118R270S2
327NET-(U3-VIN+)    U3    -10         A01X-007241Y-002350X0571Y0118R270S2
327VIN              D5    -1          A01X+009147Y-000020X0197Y0197R000S2
327/CAP_GATE        D5    -2          A01X+010013Y-000020X0197Y0197R000S2
327GND              CI4   -1          A01X+006303Y+002370X0492Y0689R000S2
327VIN              CI4   -2          A01X+007405Y+002370X0492Y0689R000S2
327/USB_CC1         R15   -1          A01X+011591Y-003760X0232Y0252R180S2
327GND              R15   -2          A01X+011209Y-003760X0232Y0252R180S2
327VIN              Q7    -1          A01X+008251Y+002244X0197Y0256R090S2
327VIN              Q7    -2          A01X+008251Y+001744X0197Y0256R090S2
327VIN              Q7    -3          A01X+008251Y+001244X0197Y0256R090S2
327/CAP_GATE        Q7    -4          A01X+008251Y+000744X0197Y0256R090S2
327VUSB             Q7    -5          A01X+009517Y+001494X1811Y1622R090S2
327VUSB             Q7    -5          A01X+010436Y+002244X0197Y0217R090S2
327VUSB             Q7    -5          A01X+010436Y+001744X0197Y0217R090S2
327VUSB             Q7    -5          A01X+010436Y+001244X0197Y0217R090S2
327VUSB             Q7    -5          A01X+010436Y+000744X0197Y0217R090S2
317GND              H3    -1    D0157PA00X+013350Y-006000X0276Y0000R000S0
317GND              H3    -1    D0157PA00X+013541Y-005541X0276Y0000R000S0
317GND              H3    -1    D0157PA00X+013541Y-006459X0276Y0000R000S0
317GND              H3    -1    D0157PA00X+014000Y-005350X0276Y0000R000S0
317GND              H3    -1    D0866PA00X+014000Y-006000X1732Y0000R000S0
317GND              H3    -1    D0157PA00X+014000Y-006650X0276Y0000R000S0
317GND              H3    -1    D0157PA00X+014459Y-005541X0276Y0000R000S0
317GND              H3    -1    D0157PA00X+014459Y-006459X0276Y0000R000S0
317GND              H3    -1    D0157PA00X+014650Y-006000X0276Y0000R000S0
327GND              CO1   -1          A01X-006979Y+003920X0232Y0252R180S2
327VOUT_N           CO1   -2          A01X-007361Y+003920X0232Y0252R180S2
327GND              C3    -1          A01X+000509Y-001530X0232Y0252R000S2
3276V               C3    -2          A01X+000891Y-001530X0232Y0252R000S2
327VOUT             RA2   -1          A01X-007858Y-001350X0232Y0252R000S2
327NET-(U3-VIN-)    RA2   -2          A01X-007476Y-001350X0232Y0252R000S2
327/USB_CC2         R16   -1          A01X+011041Y-003370X0232Y0252R180S2
327GND              R16   -2          A01X+010659Y-003370X0232Y0252R180S2
327VIN              RS3   -1          A01X+002041Y-003910X0232Y0252R180S2
327/SNS2N           RS3   -2          A01X+001659Y-003910X0232Y0252R180S2
327GND              CI5   -1          A01X+006303Y+001470X0492Y0689R000S2
327VIN              CI5   -2          A01X+007405Y+001470X0492Y0689R000S2
327NET-(D7-K)       CD5   -1          A01X+010514Y-004938X0232Y0252R180S2
327NET-(U5-BS)      CD5   -2          A01X+010132Y-004938X0232Y0252R180S2
327/EXT_DP_IC       R29   -1          A01X+005650Y-005968X0232Y0252R090S2
327/EXT_DP          R29   -2          A01X+005650Y-006350X0232Y0252R090S2
327GND              CO15  -1          A01X-010547Y+004780X0492Y0689R000S2
327VOUT_N           CO15  -2          A01X-009445Y+004780X0492Y0689R000S2
327GND              CO11  -1          A01X-006825Y+000570X0492Y0689R180S2
327VOUT_N           CO11  -2          A01X-007927Y+000570X0492Y0689R180S2
317GND              H4    -1    D0157PA00X+013350Y+006000X0276Y0000R000S0
317GND              H4    -1    D0157PA00X+013541Y+006459X0276Y0000R000S0
317GND              H4    -1    D0157PA00X+013541Y+005541X0276Y0000R000S0
317GND              H4    -1    D0157PA00X+014000Y+006650X0276Y0000R000S0
317GND              H4    -1    D0866PA00X+014000Y+006000X1732Y0000R000S0
317GND              H4    -1    D0157PA00X+014000Y+005350X0276Y0000R000S0
317GND              H4    -1    D0157PA00X+014459Y+006459X0276Y0000R000S0
317GND              H4    -1    D0157PA00X+014459Y+005541X0276Y0000R000S0
317GND              H4    -1    D0157PA00X+014650Y+006000X0276Y0000R000S0
327NET-(R48-PAD1)   R48   -1          A01X+010171Y-002760X0232Y0252R180S2
327NET-(D3-A)       R48   -2          A01X+009789Y-002760X0232Y0252R180S2
327GND              CA1   -1          A01X-007010Y-001260X0344Y0374R000S2
3273V3              CA1   -2          A01X-006390Y-001260X0344Y0374R000S2
327/SW2_IC          L1    -1          A01X+002119Y+004000X1280Y2165R180S2
327/SW1_IC          L1    -2          A01X-002311Y+004000X1280Y2165R180S2
3273V3              R9    -1          A01X-001562Y-003827X0232Y0252R000S2
327/PWR_SDA_IC      R9    -2          A01X-001181Y-003827X0232Y0252R000S2
327NET-(U5-EN)      RD3   -1          A01X+011220Y-004531X0232Y0252R270S2
327VIN              RD3   -2          A01X+011220Y-004149X0232Y0252R270S2
327/USB_DN          R33   -1          A01X+008150Y-006000X0232Y0252R090S2
327/QC_DN_PU        R33   -2          A01X+008150Y-006382X0232Y0252R090S2
317NET-(D2-A)       J6    -1    D0295PA00X+007184Y-001206X0433Y0433R180S0
3176V               J6    -2    D0295PA00X+006397Y-001206X0433Y0433R180S0
367N/C              F2          D0709UA00X-003151Y+000351X0709Y0000R000S0
367N/C              F2          D0709UA00X+003251Y-006051X0709Y0000R000S0
367N/C              J2          D0839UA00X+013934Y+002837X0839Y0000R090S0
317VDC              J2    -1    D0315PA00X+011454Y+004097X0709Y1181R090S0
317GND              J2    -2    D0315PA00X+011454Y+000751X0709Y1181R090S0
317GND              J2    -3    D0315PA00X+011454Y+002837X0709Y1181R090S0
317GND              J2    -SH   D0236PA00X+014328Y+000396X0630Y1181R090S0
317GND              J2    -SH   D0236PA00X+014328Y+004255X0630Y1181R090S0
327D-(U6-XO-PAD1)   U6    -1          A01X+006975Y-005129X0315Y0098R090S2
327GND              U6    -2          A01X+006778Y-005129X0315Y0098R090S2
327-(U6-DM4-PAD3)   U6    -3          A01X+006582Y-005129X0315Y0098R090S2
327-(U6-DP4-PAD4)   U6    -4          A01X+006385Y-005129X0315Y0098R090S2
327-(U6-DM3-PAD5)   U6    -5          A01X+006109Y-005405X0098Y0315R090S2
327-(U6-DP3-PAD6)   U6    -6          A01X+006109Y-005602X0098Y0315R090S2
327/EXT_DN_IC       U6    -7          A01X+006109Y-005798X0098Y0315R090S2
327/EXT_DP_IC       U6    -8          A01X+006109Y-005995X0098Y0315R090S2
327/CH32_DN         U6    -9          A01X+006385Y-006271X0315Y0098R090S2
327/CH32_DP         U6    -10         A01X+006582Y-006271X0315Y0098R090S2
327/USB_DN          U6    -11         A01X+006778Y-006271X0315Y0098R090S2
327/USB_DP          U6    -12         A01X+006975Y-006271X0315Y0098R090S2
327ASH}CDP-PAD13)   U6    -13         A01X+007251Y-005995X0098Y0315R090S2
3276-PGANG-PAD14)   U6    -14         A01X+007251Y-005798X0098Y0315R090S2
3273V3              U6    -15         A01X+007251Y-005602X0098Y0315R090S2
3273V3              U6    -16         A01X+007251Y-005405X0098Y0315R090S2
317GND              U6    -17   D0118PA00X+006897Y-005483X0236Y0000R090S3
317GND              U6    -17   D0118PA00X+006680Y-005483X0236Y0000R090S3
317GND              U6    -17   D0118PA00X+006463Y-005483X0236Y0000R090S3
317GND              U6    -17   D0118PA00X+006897Y-005700X0236Y0000R090S3
317GND              U6    -17   D0118PA00X+006680Y-005700X0236Y0000R090S3
327GND              U6    -17         A01X+006680Y-005700X0669Y0669R090S2
327GND              U6    -17         A04X+006680Y-005700X0669Y0669R090S3
317GND              U6    -17   D0118PA00X+006463Y-005700X0236Y0000R090S3
317GND              U6    -17   D0118PA00X+006897Y-005917X0236Y0000R090S3
317GND              U6    -17   D0118PA00X+006680Y-005917X0236Y0000R090S3
317GND              U6    -17   D0118PA00X+006463Y-005917X0236Y0000R090S3
327GND              CA2   -1          A01X-006891Y-001754X0232Y0252R000S2
3273V3              CA2   -2          A01X-006509Y-001754X0232Y0252R000S2
327GND              C10   -1          A01X+000888Y-004691X0232Y0252R270S2
327NET-(C10-PAD2)   C10   -2          A01X+000888Y-004309X0232Y0252R270S2
367N/C              J1          D0236UA00X+012629Y-003888X0236Y0000R090S0
367N/C              J1          D0236UA00X+012629Y-001612X0236Y0000R090S0
327GND              J1    -A1         A01X+012212Y-004010X0236Y0457R270S2
327VUSB             J1    -A4         A01X+012212Y-003695X0236Y0457R270S2
327/USB_CC1         J1    -A5         A01X+012212Y-003242X0118Y0457R090S2
327/USB_DP          J1    -A6         A01X+012212Y-002848X0118Y0457R090S2
327/USB_DN          J1    -A7         A01X+012212Y-002652X0118Y0457R090S2
327J1-SBU1-PADA8)   J1    -A8         A01X+012212Y-002258X0118Y0457R090S2
327VUSB             J1    -A9         A01X+012212Y-001805X0236Y0457R270S2
327GND              J1    -A12        A01X+012212Y-001490X0236Y0457R270S2
327GND              J1    -B1         A01X+012212Y-001490X0236Y0457R270S2
327VUSB             J1    -B4         A01X+012212Y-001805X0236Y0457R270S2
327/USB_CC2         J1    -B5         A01X+012212Y-002061X0118Y0457R090S2
327/USB_DP          J1    -B6         A01X+012212Y-002455X0118Y0457R090S2
327/USB_DN          J1    -B7         A01X+012212Y-003045X0118Y0457R090S2
327J1-SBU2-PADB8)   J1    -B8         A01X+012212Y-003439X0118Y0457R090S2
327VUSB             J1    -B9         A01X+012212Y-003695X0236Y0457R270S2
327GND              J1    -B12        A01X+012212Y-004010X0236Y0457R270S2
317GND              J1    -S1   D0236PA00X+012440Y-004451X0787Y0354R180S0
317GND              J1    -S2   D0236PA00X+014082Y-004451X0669Y0354R180S0
317GND              J1    -S3   D0236PA00X+014082Y-001049X0669Y0354R180S0
317GND              J1    -S4   D0236PA00X+012440Y-001049X0787Y0354R180S0
327GND              CD3   -1          A01X+008940Y-005530X0344Y0374R270S2
3273V3              CD3   -2          A01X+008940Y-004910X0344Y0374R270S2
327/EXT_DN_IC       R28   -1          A01X+005650Y-005600X0232Y0252R270S2
327/EXT_DN          R28   -2          A01X+005650Y-005218X0232Y0252R270S2
327GND              C12   -1          A01X+000361Y-005139X0232Y0252R180S2
327/ADIN_IC         C12   -2          A01X-000020Y-005139X0232Y0252R180S2
327GND              CO7   -1          A01X-006276Y+003553X0232Y0252R270S2
327/VOUT_P          CO7   -2          A01X-006276Y+003935X0232Y0252R270S2
327GND              CO6   -1          A01X-005886Y+003553X0232Y0252R270S2
327/VOUT_P          CO6   -2          A01X-005886Y+003935X0232Y0252R270S2
327VIN              C7    -1          A01X+002259Y-002873X0344Y0374R000S2
327GND              C7    -2          A01X+002879Y-002873X0344Y0374R000S2
327/QC_DN_PD        R36   -1          A01X+007750Y-006382X0232Y0252R270S2
327/USB_DN          R36   -2          A01X+007750Y-006000X0232Y0252R270S2
327/PB4_IC          R31   -1          A01X+003400Y-003741X0232Y0252R270S2
327/PB4             R31   -2          A01X+003400Y-003359X0232Y0252R270S2
327NET-(D7-K)       D7    -1          A01X+011086Y-005280X0433Y0433R000S2
327GND              D7    -2          A01X+012188Y-005280X0433Y0433R000S2
327NET-(Q5-D)       R39   -1          A01X-007884Y-004170X0443Y0689R180S2
327VOUT             R39   -2          A01X-009036Y-004170X0443Y0689R180S2
327VIN              D3    -1          A01X+009040Y+003020X0197Y0197R000S2
327NET-(D3-A)       D3    -2          A01X+009906Y+003020X0197Y0197R000S2
327NET-(D3-A)       R47   -1          A01X+009420Y-002371X0232Y0252R270S2
327VIN              R47   -2          A01X+009420Y-001989X0232Y0252R270S2
327GND              CD9   -1          A01X+006374Y-003598X0232Y0252R270S2
3276V               CD9   -2          A01X+006374Y-003216X0232Y0252R270S2
327/QC_DP_PD        R35   -1          A01X+007750Y-005259X0232Y0252R090S2
327/USB_DP          R35   -2          A01X+007750Y-005641X0232Y0252R090S2
327GND              CD8   -1          A01X+005792Y-004069X0384Y0551R270S2
3276V               CD8   -2          A01X+005792Y-003331X0384Y0551R270S2
327/SENSE_SDA_IC    R17   -1          A01X-006860Y-004669X0232Y0252R090S2
3273V3              R17   -2          A01X-006860Y-005051X0232Y0252R090S2
327GND              C2    -1          A01X+001658Y-001971X0232Y0252R180S2
327NET-(U1-VCC)     C2    -2          A01X+001276Y-001971X0232Y0252R180S2
327NET-(U3-VIN+)    CA3   -1          A01X-007652Y-001754X0232Y0252R000S2
327NET-(U3-VIN-)    CA3   -2          A01X-007270Y-001754X0232Y0252R000S2
3276V               D1    -1          A01X+005749Y-002550X0433Y0433R000S2
327NET-(D1-A)       D1    -2          A01X+006851Y-002550X0433Y0433R000S2
327/SPI1_MOSI_IC    R25   -1          A01X-005550Y-005572X0232Y0252R270S2
327/SPI1_MOSI       R25   -2          A01X-005550Y-005190X0232Y0252R270S2
327VIN              C5    -1          A01X+001409Y-003135X0232Y0252R000S2
327GND              C5    -2          A01X+001791Y-003135X0232Y0252R000S2
327/SW1_IC          CB2   -1          A01X+000141Y-001530X0232Y0252R180S2
327/BT1_IC          CB2   -2          A01X-000241Y-001530X0232Y0252R180S2
327/SNS1P           U1    -1          A01X-000718Y-002299X0051Y0051R000S2
327/GPO_IC          U1    -2          A01X-000718Y-002456X0315Y0079R000S2
327D-(U1-CP-PAD3)   U1    -3          A01X-000718Y-002614X0315Y0079R000S2
327{SLASH}DITHER)   U1    -4          A01X-000718Y-002771X0315Y0079R000S2
327U1-INDET-PAD5)   U1    -5          A01X-000718Y-002929X0315Y0079R000S2
327VOUT             U1    -6          A01X-000718Y-003086X0315Y0079R000S2
327/PWR_CE          U1    -7          A01X-000718Y-003244X0315Y0079R000S2
327/PWR_STOP        U1    -8          A01X-000718Y-003401X0051Y0051R000S2
327/PWR_SCL_IC      U1    -9          A01X-000501Y-003618X0051Y0051R000S2
327/PWR_SDA_IC      U1    -10         A01X-000344Y-003618X0079Y0315R000S2
327/PWR_INT_IC      U1    -11         A01X-000186Y-003618X0079Y0315R000S2
327GND              U1    -12         A01X-000029Y-003618X0079Y0315R000S2
327/ADIN_IC         U1    -13         A01X+000129Y-003618X0079Y0315R000S2
327/VBUS_FB_IC      U1    -14         A01X+000286Y-003618X0079Y0315R000S2
327/COMP_IC         U1    -15         A01X+000444Y-003618X0079Y0315R000S2
327/VBATS_IC        U1    -16         A01X+000601Y-003618X0051Y0051R000S2
327/SNS2N           U1    -17         A01X+000818Y-003401X0051Y0051R000S2
327/SNS2P           U1    -18         A01X+000818Y-003244X0315Y0079R000S2
327VIN              U1    -19         A01X+000818Y-003086X0315Y0079R000S2
327/BT2_IC          U1    -20         A01X+000818Y-002929X0315Y0079R000S2
327/HD2_IC          U1    -21         A01X+000818Y-002771X0315Y0079R000S2
327/SW2_IC          U1    -22         A01X+000818Y-002614X0315Y0079R000S2
327/LD2_IC          U1    -23         A01X+000818Y-002456X0315Y0079R000S2
327NET-(U1-VCC)     U1    -24         A01X+000818Y-002299X0051Y0051R000S2
3276V               U1    -25         A01X+000601Y-002082X0051Y0051R000S2
327GND              U1    -26         A01X+000444Y-002082X0079Y0315R000S2
327/LD1_IC          U1    -27         A01X+000286Y-002082X0079Y0315R000S2
327/SW1_IC          U1    -28         A01X+000129Y-002082X0079Y0315R000S2
327/HD1_IC          U1    -29         A01X-000029Y-002082X0079Y0315R000S2
327/BT1_IC          U1    -30         A01X-000186Y-002082X0079Y0315R000S2
327VOUT             U1    -31         A01X-000344Y-002082X0079Y0315R000S2
327/SNS1N           U1    -32         A01X-000501Y-002082X0051Y0051R000S2
317GND              U1    -33   D0118PA00X-000285Y-002515X0177Y0000R000S3
317GND              U1    -33   D0118PA00X-000285Y-002850X0177Y0000R000S3
317GND              U1    -33   D0118PA00X-000285Y-003185X0177Y0000R000S3
317GND              U1    -33   D0118PA00X+000050Y-002515X0177Y0000R000S3
317GND              U1    -33   D0118PA00X+000050Y-002850X0177Y0000R000S3
327GND              U1    -33         A04X+000050Y-002850X0866Y0866R000S3
327GND              U1    -33         A01X+000050Y-002850X1043Y1043R000S2
317GND              U1    -33   D0118PA00X+000050Y-003185X0177Y0000R000S3
317GND              U1    -33   D0118PA00X+000385Y-002515X0177Y0000R000S3
317GND              U1    -33   D0118PA00X+000385Y-002850X0177Y0000R000S3
317GND              U1    -33   D0118PA00X+000385Y-003185X0177Y0000R000S3
327GND              CO14  -1          A01X-010547Y+003880X0492Y0689R000S2
327VOUT_N           CO14  -2          A01X-009445Y+003880X0492Y0689R000S2
327/SENSE_ALT_IC    R19   -1          A01X-007240Y-004669X0232Y0252R090S2
3273V3              R19   -2          A01X-007240Y-005051X0232Y0252R090S2
327NET-(R46-PAD1)   R46   -1          A01X+011621Y-000300X0232Y0252R180S2
327/CAP_GATE        R46   -2          A01X+011239Y-000300X0232Y0252R180S2
327/SW2_IC          Q1    -1          A01X+003101Y+005900X0197Y0256R090S2
327/SW2_IC          Q1    -2          A01X+003101Y+005400X0197Y0256R090S2
327/SW2_IC          Q1    -3          A01X+003101Y+004900X0197Y0256R090S2
327/HD2_IC          Q1    -4          A01X+003101Y+004400X0197Y0256R090S2
327NET-(CI7-PAD2)   Q1    -5          A01X+004367Y+005150X1811Y1622R090S2
327NET-(CI7-PAD2)   Q1    -5          A01X+005286Y+005900X0197Y0217R090S2
327NET-(CI7-PAD2)   Q1    -5          A01X+005286Y+005400X0197Y0217R090S2
327NET-(CI7-PAD2)   Q1    -5          A01X+005286Y+004900X0197Y0217R090S2
327NET-(CI7-PAD2)   Q1    -5          A01X+005286Y+004400X0197Y0217R090S2
327/VOUT_P          RS8   -1          A01X-006046Y+004744X0482Y1043R180S2
327VOUT_N           RS8   -2          A01X-007866Y+004744X0482Y1043R180S2
327GND              CD4   -1          A01X+009440Y-004941X0232Y0252R270S2
3273V3              CD4   -2          A01X+009440Y-004559X0232Y0252R270S2
327GND              Q4    -1          A01X-005459Y+003600X0197Y0256R090S2
327GND              Q4    -2          A01X-005459Y+003100X0197Y0256R090S2
327GND              Q4    -3          A01X-005459Y+002600X0197Y0256R090S2
327/LD1_IC          Q4    -4          A01X-005459Y+002100X0197Y0256R090S2
327/SW1_IC          Q4    -5          A01X-004193Y+002850X1811Y1622R090S2
327/SW1_IC          Q4    -5          A01X-003274Y+003600X0197Y0217R090S2
327/SW1_IC          Q4    -5          A01X-003274Y+003100X0197Y0217R090S2
327/SW1_IC          Q4    -5          A01X-003274Y+002600X0197Y0217R090S2
327/SW1_IC          Q4    -5          A01X-003274Y+002100X0197Y0217R090S2
327GND              Q2    -1          A01X+005267Y+002100X0197Y0256R270S2
327GND              Q2    -2          A01X+005267Y+002600X0197Y0256R270S2
327GND              Q2    -3          A01X+005267Y+003100X0197Y0256R270S2
327/LD2_IC          Q2    -4          A01X+005267Y+003600X0197Y0256R270S2
327/SW2_IC          Q2    -5          A01X+004001Y+002850X1811Y1622R270S2
327/SW2_IC          Q2    -5          A01X+003082Y+002100X0197Y0217R270S2
327/SW2_IC          Q2    -5          A01X+003082Y+002600X0197Y0217R270S2
327/SW2_IC          Q2    -5          A01X+003082Y+003100X0197Y0217R270S2
327/SW2_IC          Q2    -5          A01X+003082Y+003600X0197Y0217R270S2
3273V3              R10   -1          A01X-001308Y-004324X0232Y0252R000S2
327/PWR_INT_IC      R10   -2          A01X-000926Y-004324X0232Y0252R000S2
327GND              CD6   -1          A01X+008400Y-004110X0344Y0374R270S2
3273V3              CD6   -2          A01X+008400Y-003490X0344Y0374R270S2
327/COMP_IC         R5    -1          A01X+000504Y-004157X0232Y0252R090S2
327NET-(C10-PAD2)   R5    -2          A01X+000504Y-004539X0232Y0252R090S2
327/SPI1_MISO_IC    R26   -1          A01X-005550Y-005940X0232Y0252R090S2
327/SPI1_MISO       R26   -2          A01X-005550Y-006322X0232Y0252R090S2
327GND              C13   -1          A01X-000801Y-004724X0232Y0252R180S2
3273V3              C13   -2          A01X-001183Y-004724X0232Y0252R180S2
327GND              CI7   -1          A01X+005694Y+003553X0232Y0252R270S2
327NET-(CI7-PAD2)   CI7   -2          A01X+005694Y+003935X0232Y0252R270S2
327/SPI1_SCK_IC     R24   -1          A01X-005550Y-003940X0232Y0252R090S2
327/SPI1_SCK        R24   -2          A01X-005550Y-004322X0232Y0252R090S2
327GND              CI1   -1          A01X+006409Y+003920X0232Y0252R000S2
327VIN              CI1   -2          A01X+006791Y+003920X0232Y0252R000S2
327GND              R7    -1          A01X-000253Y-004200X0232Y0252R000S2
327/VBUS_FB_IC      R7    -2          A01X+000128Y-004200X0232Y0252R000S2
327GND              C15   -1          A01X-003320Y-003966X0232Y0252R000S2
327/VIN_ADC_IC      C15   -2          A01X-002938Y-003966X0232Y0252R000S2
327VIN              Q8    -1          A01X+008255Y+005284X0197Y0256R090S2
327VIN              Q8    -2          A01X+008255Y+004784X0197Y0256R090S2
327VIN              Q8    -3          A01X+008255Y+004284X0197Y0256R090S2
327NET-(D3-A)       Q8    -4          A01X+008255Y+003784X0197Y0256R090S2
327VDC              Q8    -5          A01X+009521Y+004534X1811Y1622R090S2
327VDC              Q8    -5          A01X+010440Y+005284X0197Y0217R090S2
327VDC              Q8    -5          A01X+010440Y+004784X0197Y0217R090S2
327VDC              Q8    -5          A01X+010440Y+004284X0197Y0217R090S2
327VDC              Q8    -5          A01X+010440Y+003784X0197Y0217R090S2
327GND              CO12  -1          A01X-010547Y+002080X0492Y0689R000S2
327VOUT_N           CO12  -2          A01X-009445Y+002080X0492Y0689R000S2
317GND              H1    -1    D0157PA00X-014650Y+006000X0276Y0000R000S0
317GND              H1    -1    D0157PA00X-014459Y+006459X0276Y0000R000S0
317GND              H1    -1    D0157PA00X-014459Y+005541X0276Y0000R000S0
317GND              H1    -1    D0157PA00X-014000Y+006650X0276Y0000R000S0
317GND              H1    -1    D0866PA00X-014000Y+006000X1732Y0000R000S0
317GND              H1    -1    D0157PA00X-014000Y+005350X0276Y0000R000S0
317GND              H1    -1    D0157PA00X-013541Y+006459X0276Y0000R000S0
317GND              H1    -1    D0157PA00X-013541Y+005541X0276Y0000R000S0
317GND              H1    -1    D0157PA00X-013350Y+006000X0276Y0000R000S0
327NET-(D2-A)       C16   -1          A01X+008741Y-000200X0232Y0252R180S2
3276V               C16   -2          A01X+008359Y-000200X0232Y0252R180S2
327VIN              R45   -1          A01X+009789Y-002000X0232Y0252R000S2
327/CAP_GATE        R45   -2          A01X+010171Y-002000X0232Y0252R000S2
327VOUT_N           RS9   -1          A01X-010273Y+000355X0482Y1043R090S2
327VOUT             RS9   -2          A01X-010273Y-001466X0482Y1043R090S2
327/USART2_TX_IC    R21   -1          A01X-005550Y-001560X0232Y0252R270S2
327/USART2_TX       R21   -2          A01X-005550Y-001178X0232Y0252R270S2
317GND              J4    -1    D0394PA00X-004600Y-000250X0551Y0551R000S0
317/USART2_TX       J4    -2    D0394PA00X-004600Y-001250X0551Y0551R000S0
317/USART2_RX       J4    -3    D0394PA00X-004600Y-002250X0551Y0551R000S0
317/SPI1_NSS        J4    -4    D0394PA00X-004600Y-003250X0551Y0551R000S0
317/SPI1_SCK        J4    -5    D0394PA00X-004600Y-004250X0551Y0551R000S0
317/SPI1_MOSI       J4    -6    D0394PA00X-004600Y-005250X0551Y0551R000S0
317/SPI1_MISO       J4    -7    D0394PA00X-004600Y-006250X0551Y0551R000S0
327GND              CO10  -1          A01X-007919Y-002830X0492Y0689R180S2
327VOUT             CO10  -2          A01X-009021Y-002830X0492Y0689R180S2
327GND              CO4   -1          A01X-006825Y+002370X0492Y0689R180S2
327VOUT_N           CO4   -2          A01X-007927Y+002370X0492Y0689R180S2
327VIN              RS1   -1          A01X+007674Y+005994X0482Y1043R180S2
327NET-(CI7-PAD2)   RS1   -2          A01X+005854Y+005994X0482Y1043R180S2
327VDC              R49   -1          A01X+011920Y+004977X0232Y0252R270S2
327NET-(U7A--)      R49   -2          A01X+011920Y+005359X0232Y0252R270S2
327/PB3_IC          R32   -1          A01X+003800Y-003741X0232Y0252R270S2
327/PB3             R32   -2          A01X+003800Y-003359X0232Y0252R270S2
327GND              CO17  -1          A01X-010547Y+001177X0492Y0689R000S2
327VOUT_N           CO17  -2          A01X-009445Y+001177X0492Y0689R000S2
327VOUT_N           RA1   -1          A01X-007861Y-000950X0232Y0252R000S2
327NET-(U3-VIN+)    RA1   -2          A01X-007479Y-000950X0232Y0252R000S2
327/BOOT0           R44   -1          A01X+003402Y-004125X0232Y0252R000S2
327NET-(J5-PIN_5)   R44   -2          A01X+003784Y-004125X0232Y0252R000S2
327NET-(U5-FB)      RD2   -1          A01X+008660Y-006381X0232Y0252R270S2
3273V3              RD2   -2          A01X+008660Y-005999X0232Y0252R270S2
327GND              CD2   -1          A01X+010950Y-006381X0232Y0252R270S2
327VIN              CD2   -2          A01X+010950Y-005999X0232Y0252R270S2
327/SNS1N           CS2   -1          A01X-001200Y-001709X0232Y0252R090S2
327/SNS1P           CS2   -2          A01X-001200Y-002091X0232Y0252R090S2
327GND              CI8   -1          A01X+006303Y+000570X0492Y0689R000S2
327VIN              CI8   -2          A01X+007405Y+000570X0492Y0689R000S2
327NET-(C8-PAD2)    R13   -1          A01X-005059Y+001500X0232Y0252R180S2
327GND              R13   -2          A01X-005441Y+001500X0232Y0252R180S2
327/USART2_RX_IC    R22   -1          A01X-005550Y-001928X0232Y0252R090S2
327/USART2_RX       R22   -2          A01X-005550Y-002310X0232Y0252R090S2
327NET-(C11-PAD2)   R12   -1          A01X+005065Y+001516X0232Y0252R000S2
327GND              R12   -2          A01X+005447Y+001516X0232Y0252R000S2
327GND              CO13  -1          A01X-010547Y+002980X0492Y0689R000S2
327VOUT_N           CO13  -2          A01X-009445Y+002980X0492Y0689R000S2
327GND              R14   -1          A01X+001284Y-004681X0232Y0252R270S2
327/VBATS_IC        R14   -2          A01X+001284Y-004299X0232Y0252R270S2
327NET-(D4-A)       R30   -1          A01X-003311Y-006422X0232Y0252R180S2
327/LED_RUN         R30   -2          A01X-003693Y-006422X0232Y0252R180S2
327/VOUT_P          RS5   -1          A01X-001982Y-001650X0232Y0252R000S2
327/SNS1N           RS5   -2          A01X-001600Y-001650X0232Y0252R000S2
327VOUT_N           RS6   -1          A01X-001982Y-002050X0232Y0252R000S2
327/SNS1P           RS6   -2          A01X-001600Y-002050X0232Y0252R000S2
327NET-(D7-K)       LD3   -1          A01X+010555Y-004240X0335Y0787R180S2
3273V3              LD3   -2          A01X+009905Y-004240X0335Y0787R180S2
327/PW_DISC_IC      R41   -1          A01X-006833Y-005805X0232Y0252R270S2
327NET-(Q5-G)       R41   -2          A01X-006833Y-005423X0232Y0252R270S2
327/SW1_IC          Q3    -1          A01X-003293Y+004400X0197Y0256R270S2
327/SW1_IC          Q3    -2          A01X-003293Y+004900X0197Y0256R270S2
327/SW1_IC          Q3    -3          A01X-003293Y+005400X0197Y0256R270S2
327/HD1_IC          Q3    -4          A01X-003293Y+005900X0197Y0256R270S2
327/VOUT_P          Q3    -5          A01X-004559Y+005150X1811Y1622R270S2
327/VOUT_P          Q3    -5          A01X-005478Y+004400X0197Y0217R270S2
327/VOUT_P          Q3    -5          A01X-005478Y+004900X0197Y0217R270S2
327/VOUT_P          Q3    -5          A01X-005478Y+005400X0197Y0217R270S2
327/VOUT_P          Q3    -5          A01X-005478Y+005900X0197Y0217R270S2
327GND              CD7   -1          A01X+008895Y-003841X0232Y0252R270S2
3273V3              CD7   -2          A01X+008895Y-003459X0232Y0252R270S2
327VIN              R37   -1          A01X-002938Y-003202X0232Y0252R180S2
327/VIN_ADC_IC      R37   -2          A01X-003320Y-003202X0232Y0252R180S2
317VOUT             CE2   -1    D0315PA00X-011040Y-004289X0630Y0630R090S0
317GND              CE2   -2    D0315PA00X-011040Y-005667X0630Y0000R090S0
327GND              CD1   -1          A01X+012601Y-006180X0492Y0689R180S2
327VIN              CD1   -2          A01X+011499Y-006180X0492Y0689R180S2
327NET-(R48-PAD1)   U7    -1          A01X+010666Y-002592X0640Y0197R270S2
327NET-(U7A--)      U7    -2          A01X+010922Y-002592X0640Y0197R270S2
327VUSB             U7    -3          A01X+011178Y-002592X0640Y0197R270S2
327GND              U7    -4          A01X+011434Y-002592X0640Y0197R270S2
327VIN              U7    -5          A01X+011434Y-000928X0640Y0197R270S2
327VUSB             U7    -6          A01X+011178Y-000928X0640Y0197R270S2
327NET-(R46-PAD1)   U7    -7          A01X+010922Y-000928X0640Y0197R270S2
327VIN              U7    -8          A01X+010666Y-000928X0640Y0197R270S2
3273V3              LD2   -1          A01X+008097Y-002614X0335Y0787R180S2
327NET-(D1-A)       LD2   -2          A01X+007448Y-002614X0335Y0787R180S2
327/FAN_CTRL        Q6    -1          A01X+010014Y-001474X0354Y0315R180S2
327GND              Q6    -2          A01X+010014Y-000726X0354Y0315R180S2
327NET-(D2-A)       Q6    -3          A01X+009226Y-001100X0354Y0315R180S2
327/SENSE_SCL_IC    R18   -1          A01X-006480Y-004669X0232Y0252R090S2
3273V3              R18   -2          A01X-006480Y-005051X0232Y0252R090S2
327/SNS2N           CS1   -1          A01X+001287Y-003913X0232Y0252R270S2
327/SNS2P           CS1   -2          A01X+001287Y-003531X0232Y0252R270S2
327GND              C19   -1          A01X+010489Y-000300X0232Y0252R000S2
327VIN              C19   -2          A01X+010871Y-000300X0232Y0252R000S2
317GND              J3    -1    D1063PA00X-011982Y+001417X1614Y1614R270S0
317VOUT             J3    -2    D1063PA00X-011982Y-001417X1614Y0000R270S0
317GND              J3    -MP   D0236PA00X-014344Y-002657X0354Y0787R270S0
317GND              J3    -MP   D0236PA00X-014344Y+002657X0354Y0787R270S0
327NET-(D1-A)       U4    -1          A01X+006900Y-003464X0417Y0256R000S2
327GND              U4    -2          A01X+006900Y-003838X0417Y0256R000S2
327NET-(U4-FB)      U4    -3          A01X+006900Y-004212X0417Y0256R000S2
3273V3              U4    -4          A01X+007766Y-004212X0417Y0256R000S2
3273V3              U4    -5          A01X+007766Y-003464X0417Y0256R000S2
327GND              C14   -1          A01X+008082Y-004750X0232Y0252R180S2
3273V3              C14   -2          A01X+007700Y-004750X0232Y0252R180S2
327/VBATS_IC        R11   -1          A01X+001675Y-004300X0232Y0252R090S2
327VIN              R11   -2          A01X+001675Y-004682X0232Y0252R090S2
327GND              CO16  -1          A01X-010547Y+005690X0492Y0689R000S2
327VOUT_N           CO16  -2          A01X-009445Y+005690X0492Y0689R000S2
327/SW1_IC          C8    -1          A01X-004309Y+001500X0232Y0252R180S2
327NET-(C8-PAD2)    C8    -2          A01X-004691Y+001500X0232Y0252R180S2
327/FAN_CTRL_IC     R42   -1          A01X+009420Y-003128X0232Y0252R270S2
327/FAN_CTRL        R42   -2          A01X+009420Y-002746X0232Y0252R270S2
327/SWDIO_IC        TP4   -1          A04X-001189Y-006429X0394Y0000R000S1
327/SWCLK_IC        TP3   -1          A04X-001968Y-006433X0394Y0000R000S1
999
